:100000000C943C000C9459000C9459000C94590029
:100010000C9459000C9459000C9459000C945900FC
:100020000C9459000C9471010C9459000C945900D3
:100030000C9459000C943D010C94F7000C94590059
:100040000C9459000C9459000C9459000C945900CC
:100050000C9459000C9459000C9459000C945900BC
:100060000C9459000C9459000000FF00000000019E
:10007000000000000000000011241FBECFEFD8E0F8
:10008000DEBFCDBF13E0A0E0B1E0EAE5F2E202C0DE
:1000900005900D92A231B107D9F723E0A2E1B3E0B8
:1000A00001C01D92AA34B207E1F70E9429040C9402
:1000B0002B110C94000093B1282F207F9C70922B61
:1000C00095B9289A00C0289892E49A95F1F700C053
:1000D00093B19C708295807F892B85B9289A00C046
:1000E000289882E48A95F1F700C0089580E20E9482
:1000F0005B0083EC99E00197F1F700C0000080E21B
:100100000E945B0083EC99E00197F1F700C00000CA
:1001100088E10E945B0087E893E10197F1F700C056
:1001200000008CE00E945B0087E893E10197F1F703
:1001300000C0000086E00E945B0087E893E1019721
:10014000F1F700C0000082E00E945B0087E893E1C5
:100150000197F1F700C0000081E00E945B0087E892
:1001600093E10197F1F700C00000089593B1282FA3
:10017000207F9C70922B926095B9289A00C0289895
:1001800092E49A95F1F700C093B19C708295807FBC
:10019000892B826085B9289A00C0289882E48A95C4
:1001A000F1F700C00895672B11F4805801C0805406
:1001B0000E945B0082E48A95F1F700C0089581E017
:1001C0000E945B0087E893E10197F1F700C000000F
:1001D00008950C94B600CF93DF93EC0189918823A6
:1001E00019F00E94B600FACFDF91CF9108951F92C7
:1001F0000F920FB60F9211242F938F939F93EF932B
:10020000FF938091120324E08202C00111248F70B9
:10021000809312034C9B03C08260809312034B9B1C
:1002200005C080911203816080931203E091120354
:100230000E2E000CFF0BE859FF4FE49180912F0325
:10024000E80FE0932F03FF91EF919F918F912F91F2
:100250000F900FBE0F901F901895A99AEEE6F0E050
:100260008081826080838DE787BD16BC84B5826003
:1002700084BD85B5826085BD08951F920F920FB62B
:100280000F9211242F938F939F9380911F0390912E
:1002900020038095909590938500809384008091B1
:1002A0002B0390912C03019690932C0380932B03A6
:1002B0008091150390911603892B59F080911903B1
:1002C00090911A038835924024F095B188E08927EF
:1002D00085B99F918F912F910F900FBE0F901F9016
:1002E00018951F920F920FB60F9211242F938F9390
:1002F0009F938091150390911603892B69F080914B
:10030000190390911A038735924031F481EE80935E
:10031000B2008BB180588BB99F918F912F910F9024
:100320000FBE0F901F9018950E942D011092800013
:1003300081E080938100EFE6F0E08081816080833E
:100340001092B0001092B100E0E7F0E0808181608F
:1003500080837894089587E080937A0080E2809388
:100360007E0085E480937C00089580E090E04A99C7
:1003700012C0E7EAF1E63197F1F700C000004A99B0
:1003800005C0019685309105A1F706C0049721F0BC
:1003900081E090E00895089582E090E00895F89457
:1003A00080912F03882369F080912F0318162CF079
:1003B00080912F03880F880B01C081E010922F03DA
:1003C00001C080E07894082E000C990B08954F929C
:1003D0005F926F927F928F929F92AF92BF92CF92D5
:1003E000DF92EF92FF920F931F93CF93DF936B01F6
:1003F0007C01C6E3D3E00EE313E020E836E948E9E8
:1004000050E08AE0882E912CA12CB12C80E02601AE
:100410003701421A530A640A750A77FC04C08F5FD9
:1004200073016201F4CF805D8993CA01B901A5010E
:1004300094010E94A70D0C171D0741F7DF91CF9182
:100440001F910F91FF90EF90DF90CF90BF90AF90F2
:100450009F908F907F906F905F904F900895FF9244
:100460000F931F93CF93DF930E94E70160E070E04A
:1004700084E090E00E94D30007E313E0C1E0D0E005
:10048000F801F1908F01C530D10519F48EE20E9478
:10049000E9008F2D0E94E9002196C830D10581F72F
:1004A000DF91CF911F910F91FF900895449A2A9A5E
:1004B0008FE493EC0197F1F700C00000439A089590
:1004C00080E090E00E944C060E94560210922703A2
:1004D000109228031092290310922A0381E090E0E1
:1004E000909316038093150380E090E0089543985D
:1004F0008FE493EC0197F1F700C000002A9808956B
:1005000028E130E087FF02C0419A01C0419843E0F2
:100510004A95F1F70000409A43E04A95F1F7000050
:100520004098660F771F881F991F2150310951F796
:1005300083E08A95F1F70000429A43E04A95F1F78B
:1005400000004298089541984098429863E070E016
:1005500080E090E00E94800267EC73E080E090E031
:100560000E94800266E470E180E090E00E948002D8
:1005700061EA78E681E190E00E94800260E070E844
:1005800080E790E00E94800262E470E180E090E009
:100590000C9480028F929F92AF92BF92CF92DF9283
:1005A000EF92FF92C0902303D09024030D2C000CF7
:1005B000EE08FF08C60ED71EE81EF91EC701B601D9
:1005C00028E23AE040E050E00E94850DA8EDB5EF4A
:1005D0000E94DB0DC60ED71EE81EF91E82E0CC0C71
:1005E000DD1CEE1CFF1C8A95D1F7DA01C9012EE053
:1005F000880F991FAA1FBB1F2A95D1F7BC01CD01F7
:100600006C0D7D1D8E1D9F1DFF90EF90DF90CF9094
:10061000BF90AF909F908F900C948002CF92DF920A
:10062000EF92FF921F93CF93DF9319B120911303A1
:1006300030911403812F8270232BB1F0882369F14C
:1006400010922703109228031092290310922A0374
:10065000109214031092130360E070E083E090E0C6
:100660000E94D30080E217C0811117C010922703A7
:10067000109228031092290310922A0381E090E03F
:10068000909314038093130360E070E083E090E0A4
:100690000E94D30083E00E94B600809115039091E0
:1006A00016031170892BA9F0112309F447C0109289
:1006B000B1005F980E9477021092270310922803DE
:1006C0001092290310922A03109216031092150318
:1006D00035C00E941C06EC010E944C06111130C06E
:1006E0008091190390911A038735924019F5109261
:1006F0002C0310922B0389EF90E00197F1F700C0D3
:10070000000080912B0390912C03489B0BC08431F7
:10071000910514F44899FBCF489912C082E0809368
:10072000B10008C0449734F48091150390911603EA
:10073000892B09F30E946002EC0102C0C0E0D0E006
:100740002091190330911A03032E000C440B550B12
:1007500060E47BE48CE490E00E94850D20931F030D
:10076000309320034093210350932203C0901B0336
:10077000D0901C03E0901D03F0901E03809127038E
:1007800090912803A0912903B0912A03C816D90695
:10079000EA06FB0609F454C08091150390911603F4
:1007A000892B79F0A0911703B091180328EE33E05C
:1007B0000E94C60DC60ED71EE81EF91EC701B6015F
:1007C00018C08091130390911403892B61F0A091BC
:1007D0001703B091180328EE33E00E94C60DC60E31
:1007E000D71EE81EF91EC701B601645B7E4081403A
:1007F00091090E94CA02C701B6010E942F0280918E
:100800001B0390911C03A0911D03B0911E038093C4
:10081000270390932803A0932903B0932A0360E051
:1008200070E08FE090E00E94D300809115039091DA
:100830001603892B11F084E501C082E50E94E900CE
:10084000CE01DF91CF911F91FF90EF90DF90CF907D
:1008500008958FEF84B98BEF85B98FE187B918B808
:10086000449A80E88AB98FE78BB90E9476000E948B
:10087000AB010E94CA052091190330911A03032E7F
:10088000000C440B550B60E47BE48CE490E00E9488
:10089000850D20931F033093200340932103509331
:1008A00022030E9494010E94A3028EEF91E09F9385
:1008B0008F9382E092E09F938F9386E393E09F93E0
:1008C0008F930E940A0E60E070E080E090E00E944A
:1008D000D30086E393E00E94EB0061E070E080E0EB
:1008E00090E00E94D30082E192E00E94EB002FEBA7
:1008F00087E299E0215080409040E1F700C000007D
:100900000F900F900F900F900F900F90C1E0D0E0DC
:10091000809125039091260383309105B1F054F422
:100920008130910579F0029711F582E090E00E9404
:10093000A80C18C08430910589F00597C1F40E9475
:10094000C10610C00E94390B02C00E940D0C90938A
:100950002603809325030E94BC04DACF84E090E054
:100960000E94070D9093260380932503D1CFD09347
:100970002603C0932503CCCF80E090E00E94C310F3
:100980008837974431F068E777E480E090E00E9490
:10099000D11082E090E00E94C3106091300370910A
:1009A00031038617970721F082E090E00E94D11072
:1009B00084E090E00E94C3106091250370912603AB
:1009C0008617970721F084E090E00E94D11086E01E
:1009D00090E00E94C31060912D0370912E03861742
:1009E000970721F086E090E00E94D11088E090E027
:1009F0000E94C310609132037091330386179707EA
:100A000021F088E090E00E94D1108AE090E00E94FE
:100A1000C31060912303709124038617970721F078
:100A20008AE090E00C94D1100895CF93DF938B303F
:100A3000910518F52AE0289FE001299FD00D112487
:100A4000CC59DF4FCE010E94BD1060931B03709301
:100A50001C0380931D0390931E03CE0104960E94F5
:100A6000C31090931A0380931903CE0106960E9437
:100A7000C3109093180380931703DF91CF910895CB
:100A80000F931F93CF93DF938B30910508F03FC0F6
:100A90002AE0289FE001299FD00D1124CC59DF4F77
:100AA000CE010E94BD10DC01CB0140911B0350918F
:100AB0001C0360911D0370911E0384179507A60700
:100AC000B70719F0CE010E94C9108E010C5F1F4FAD
:100AD000C8010E94C3106091190370911A03861710
:100AE000970719F0C8010E94D1102696CE010E94E6
:100AF000C31060911703709118038617970739F098
:100B0000CE01DF91CF911F910F910C94D110DF9105
:100B1000CF911F910F910895CF93DF9310923103DE
:100B20001092300381E090E0909326038093250398
:100B300010922E0310922D0389E190E090933303DD
:100B4000809332030E94BC0480E59EECA3E1B0E0F8
:100B500080931B0390931C03A0931D03B0931E036B
:100B600086E592E090931A0380931903109218037C
:100B7000109217031092240310922303C0E0D0E0D8
:100B8000CE010E9440052196CB30D105C9F7DF91F7
:100B9000CF91089580E090E00E94C3108837974479
:100BA00011F00C948C0582E090E00E94C3109093A9
:100BB00031038093300384E090E00E94C31090934F
:100BC00026038093250386E090E00E94C310909353
:100BD0002E0380932D0388E090E00E94C310909331
:100BE0003303809332038AE090E00E94C310909315
:100BF00024038093230308950F931F93CF93DF93D0
:100C000080E40E945B0000E011E0C0E0D0E0F80169
:100C1000EC0FFD1F80810E94B6002196C830D105DF
:100C2000B1F7085F1F4F81E00032180771F7DF91BD
:100C3000CF911F910F91089580917A00806C8093DD
:100C40007A0080917A0086FDFCCF20917800309167
:100C5000790080E094E0821B930B20911503309182
:100C60001603232BA9F49C012852310937FF02C037
:100C700020E030E0409130035091310324173507D4
:100C80003CF020912503309126032530310511F4E5
:100C9000449A0895449808950F931F93CF93DF9338
:100CA0008C010852110917FF02C000E010E061E05A
:100CB00070E080E090E00E94D300C0E1D0E003301B
:100CC00011054CF0209739F082E00E94B6000350E5
:100CD00011092197F4CF0130110529F002301105D7
:100CE00021F481E003C080E001C080E20E94B600F0
:100CF00021971C161D06CCF3DF91CF911F910F9108
:100D00000895CF93DF93645B7E40814091090E94F8
:100D1000CA020E94B501EC01892B69F40E941C06ED
:100D200097FD05C00E941C0697FD07C002C080E029
:100D300090E0EC0102C0C1E0D0E0CE01DF91CF91A4
:100D400008950F931F93CF93DF9380E40E945B007D
:100D500009E211E0C0E0D0E0F801EC0FFD1F808156
:100D60000E94B6002196C830D105B1F7085F1F4F29
:100D700081E00936180771F7DF91CF911F910F912C
:100D800008959F92AF92BF92CF92DF92EF92FF921F
:100D90000F931F93CF93DF930E94DF000E94A10661
:100DA000449A03E010E0C12CD12C760156018091C9
:100DB0001B0390911C03A0911D03B0911E03BC0165
:100DC000CD016C0D7D1D8E1D9F1D0E948106EC01C5
:100DD0000E94B501892BE9F5CE01B8010E94710D81
:100DE000EB01962E60E070E0C6010E94D30088E01F
:100DF0008C1770F4CE0199278031910514F408976F
:100E000002C088E090E0FC01E05EFE4F808101C0FE
:100E100080E20E94E90061E070E0C5010E94D30019
:100E200087E0891510F0DD2702C0C8E0D0E0C05E81
:100E3000DE4F88810E94E9008FEFC81AD80AE80ABD
:100E4000F80A80E1C816D104E104F10409F0AECF3C
:100E5000AACF81E090E0DF91CF911F910F91FF9099
:100E6000EF90DF90CF90BF90AF909F90089561E09A
:100E700070E089E090E00E94D300809131038F936D
:100E8000809130038F9383E292E09F938F9386E368
:100E900093E09F938F930E940A0E0F900F900F90F4
:100EA0000F900F900F9086E393E00C94EB0061E0BD
:100EB00070E087E090E00E94D300809118038F9348
:100EC000809117038F9388E292E09F938F9386E33C
:100ED00093E09F938F930E940A0E0F900F900F90B4
:100EE0000F900F900F9086E393E00C94EB00CF925D
:100EF000DF92EF92FF920F931F93CF93DF93C091F6
:100F00001703D091180382E3E82E82E0F82E96E3CF
:100F1000C92E93E0D92E61E070E087E090E00E9456
:100F2000D300DF93CF93FF92EF92DF92CF920E9494
:100F30000A0E86E393E00E94EB000F900F900F9053
:100F40000F900F900F900E94CF01009781F03CF01E
:100F50002196CD33D105FCF2CCE3D0E0DCCF219754
:100F6000C43C8FEFD807BCF6C4ECDFEFD4CF0E94AF
:100F7000B5018C01892B39F3D0931803C093170363
:100F800080913403909135030E944005C801DF91A0
:100F9000CF911F910F91FF90EF90DF90CF90089528
:100FA000809133038F93809132038F938CE392E08F
:100FB0009F938F9386E393E09F938F930E940A0EF3
:100FC00061E070E086E090E00E94D3000F900F9007
:100FD0000F900F900F900F9086E393E00C94EB002E
:100FE0008F929F92AF92BF92CF92DF92EF92FF9239
:100FF0000F931F93CF93DF93C6E4D2E006E313E091
:1010000088EEE82E83E0F82E94EFC92EDD24D394E9
:1010100029E1A22EB12C809133038F93809132036A
:101020008F93DF93CF931F930F930E940A0E61E07B
:1010300070E086E090E00E94D30086E393E00E9497
:10104000EB000F900F900F900F900F900F900E9459
:10105000CF01009789F120913203309133031816A4
:101060001906C4F42130310529F4B0923303A0925B
:101070003203D1CF2931310529F4D0923303C09204
:101080003203C9CF243F314081F4F0923303E09220
:101090003203C1CF283E83E0380779F3243F81E053
:1010A000380719F32931310581F781E090E09093F9
:1010B000330380933203AFCF0E94B5014C01892BDB
:1010C00031F20E94BC04C401DF91CF911F910F91B6
:1010D000FF90EF90DF90CF90BF90AF909F908F9058
:1010E000089580912D0390912E0390933503809362
:1010F000340361E070E089E090E00E94D3008091C9
:1011000035038F93809134038F9380E592E09F9312
:101110008F9386E393E09F938F930E940A0E0F9024
:101120000F900F900F900F900F9086E393E00C9428
:10113000EB00EF92FF920F931F93CF93DF93C6E5DF
:10114000D2E006E313E061E070E089E090E00E9405
:10115000D300809135038F93809134038F93DF9375
:10116000CF931F930F930E940A0E86E393E00E9491
:10117000EB000F900F900F900F900F900F900E9428
:10118000CF010097E9F02091340330913503181610
:1011900019067CF4C90101968A3091052CF49093CC
:1011A000350380933403CFCF10923503109234036C
:1011B000CACFC901019797FFF2CF89E090E0EFCF46
:1011C0000E94B5017C01892BD1F28091340390916A
:1011D000350390932E0380932D030E944005C70191
:1011E000DF91CF911F910F91FF90EF90089561E0F3
:1011F00070E087E090E00E94D300809124038F93F9
:10120000809123038F938DE392E09F938F9386E3E6
:1012100093E09F938F930E940A0E0F900F900F9070
:101220000F900F900F9086E393E00C94EB00CF9219
:10123000DF92EF92FF920F931F93CF93DF93C091B2
:101240002303D09124038CE5E82E82E0F82E96E368
:10125000C92E93E0D92E61E070E087E090E00E9413
:10126000D300DF93CF93FF92EF92DF92CF920E9451
:101270000A0E86E393E00E94EB000F900F900F9010
:101280000F900F900F900E94CF01009781F03CF0DB
:101290002196C93CD105FCF2C8ECD0E0DCCF219707
:1012A000C8338FEFD807BCF6C8E3DFEFD4CF0E9476
:1012B000B5018C01892B39F380912303909124038C
:1012C000C817D90731F0D0932403C09323030E9499
:1012D000BC04C801DF91CF911F910F91FF90EF9057
:1012E000DF90CF900895CF92DF92EF92FF920F930D
:1012F0001F93CF93DF93C5E6D2E006E313E080E4CB
:10130000E82EF12C61E070E089E090E00E94D300CB
:10131000809131038F93809130038F93DF93CF932C
:101320001F930F930E940A0E86E393E00E94EB0046
:101330000F900F900F900F900F900F900E94CF0181
:101340000097F9F0209130033091310318161906F7
:101350007CF4C9010196813491052CF490933103FA
:1013600080933003CFCFF0923103E0923003CACFA5
:10137000C901019797FFF2CF109231031092300309
:10138000C1CF0E941C060E94B5016C01892BB1F2ED
:101390000E94BC04C601DF91CF911F910F91FF9075
:1013A000EF90DF90CF90089561E070E086E090E0EC
:1013B0000E94D3008091190390911A03873522E08F
:1013C00092071CF46BE672E006C0873522E09207B4
:1013D00039F463E772E086E393E00E94030E1AC0DB
:1013E0006AE070E00E94710D9F938F937F936F93DB
:1013F0008CE792E09F938F9386E393E09F938F9384
:101400000E940A0E8DB79EB708960FB6F8949EBF3D
:101410000FBE8DBF86E393E00C94EB008F929F92FA
:10142000AF92BF92CF92DF92EF92FF920F931F93F2
:10143000CF93DF938AE0E82EF12CCEE9D2E006E3E9
:1014400013E096E5C92E92E0D92E2CEDA22E25E0D0
:10145000B22E61E070E086E090E00E94D3008091BF
:10146000190390911A03873522E092071CF469E86A
:1014700072E006C0873522E0920739F463E972E032
:1014800086E393E00E94030E15C0B7010E94710D20
:101490009F938F937F936F93DF93CF931F930F93BC
:1014A0000E940A0E8DB79EB708960FB6F8949EBF9D
:1014B0000FBE8DBF86E393E00E94EB000E94CF0138
:1014C000009711F12091190330911A03181619068B
:1014D00084F4C90101968D3D25E092072CF4909388
:1014E0001A0380931903B5CFB0921A03A09219037F
:1014F000B0CFC9010197863522E0920784F7D092D8
:101500001A03C0921903A5CF0E94B5014C01892B83
:10151000A9F280913403909135030E944005C401E3
:10152000DF91CF911F910F91FF90EF90DF90CF90BF
:10153000BF90AF909F908F9008950E94DF0010920F
:1015400035031092340380913403909135030A9748
:10155000B4F760E070E080E090E00E94D3008BEA96
:1015600092E00E94EB0060E070E081E090E00E9479
:10157000D30080913403805D0E94E90080913403A0
:10158000909135030E94150580911B0390911C03D7
:10159000A0911D03B0911E03BC01CD01645B7E4090
:1015A000814091090E94CA028FE493EC0197F1F700
:1015B00000C000008091150390911603892B09F05B
:1015C00040C00E94B501892BE1F50E941C062091C4
:1015D0003003309131032817390754F080913403D8
:1015E0009091350301969093350380933403ABCFEC
:1015F00060911B0370911C0380911D0390911E0349
:101600000E942F020E940E0320913003309131037B
:101610002817390724F410922C0310922B03809181
:10162000150390911603892B61F40E94B501892B53
:1016300041F480912B0390912C03893C910514F384
:10164000CDCF089529B1207630E085E035952795F6
:101650008A95E1F781E090E02230310549F02130B0
:10166000310511F080E090E0919581959109089500
:1016700008958F929F92AF92BF92CF92DF92EF9296
:10168000FF920F931F930E94FC058AE090E09093D5
:101690003503809334030E941505C0901B03D0903E
:1016A0001C03E0901D03F0901E031092270310927C
:1016B00028031092290310922A030E94DF0060E0A1
:1016C00070E080E090E00E94D30088EB92E00E94FE
:1016D000EB004A9BFECF0E940E030E94CF010097B1
:1016E000C1F120913203309133034901032E000CE4
:1016F000AA08BB08829FB001839F700D929F700D56
:101700001124AB01770F660B770B80911B0390912F
:101710001C03A0911D03B0911E038A019B01080FB9
:10172000191F2A1F3B1FC901B801A50194010E947E
:10173000A70DC501B4010E94610D60931B03709356
:101740001C0380931D0390931E0310922C03109290
:101750002B030E94220B0097E1F0092E000CAA0B2C
:10176000BB0B40911B0350911C0360911D037091B2
:101770001E03840F951FA61FB71F80931B03909312
:101780001C03A0931D03B0931E0310922C03109210
:101790002B0380912B0390912C03893C9105DCF065
:1017A00080911B0390911C03A0911D03B0911E0317
:1017B000C816D906EA06FB0671F0809134039091B1
:1017C00035030E944005C0901B03D0901C03E0909D
:1017D0001D03F0901E030E94B5015C01892B09F4E2
:1017E00078CF80913403909135030E9440050E9488
:1017F000BC0412E0A116B10419F083E090E002C02D
:1018000082E090E01F910F91FF90EF90DF90CF90DA
:10181000BF90AF909F908F9008950F931F93CF9399
:10182000DF930E94FC0580912D0390912E039093ED
:101830003503809334030E941505109227031092FC
:1018400028031092290310922A030E94DF0060E00F
:1018500070E080E090E00E94D3008DE40E94E900F7
:1018600080913403805D0E94E90009E010E04A9B0A
:10187000FECF0E940E030E94CF01009799F12091A4
:101880003403309135031816190654F4C901019632
:101890008A3091054CF010923503109234030DC03C
:1018A000C901019797FD05C09093350380933403D8
:1018B00004C0109335030093340360E070E081E0CE
:1018C00090E00E94D30080913403805D0E94E90083
:1018D00080913403909135030E94150510922C03DA
:1018E00010922B0380912B0390912C03893C91053E
:1018F0008CF0809134039091350320912D03309129
:101900002E038217930731F090932E0380932D03BB
:101910000E94BC040E94B501EC01892B09F4A7CFF9
:10192000809134039091350390932E0380932D037F
:101930000E9440050E94BC04229719F081E090E0CB
:1019400002C084E090E0DF91CF911F910F91089544
:10195000FF920F931F93CF93DF93C0E0D0E086E018
:10196000F82E61E070E080E090E00E94D3008CEB04
:1019700092E00E94EB0061E070E080E090E00E9465
:10198000D300FC9E8001FD9E100D11240F571E4FA9
:10199000D8018D919C910E94EB00D8011296ED9197
:1019A000FC911397309709F009954A9BFECF0E944E
:1019B0001C060E94CF01009769F03CF02196C630CA
:1019C000D10579F6C0E0D0E0CCCF219750F6C5E044
:1019D000D0E0C7CF0E94B501009749F3813091054F
:1019E00031F4D8011496ED91FC9115970995029761
:1019F00009F0B7CF249719F081E090E002C083E0AE
:101A000090E0DF91CF911F910F91FF900895FF9289
:101A10000F931F93CF93DF93C0E0D0E086E0F82EC2
:101A200061E070E080E090E00E94D3008CEB92E0F7
:101A30000E94EB0061E070E080E090E00E94D30043
:101A4000FC9E8001FD9E100D112407591E4FD801E8
:101A50008D919C910E94EB00D8011296ED91FC9122
:101A60001397309709F009954A9BFECF0E941C06F8
:101A70000E94CF01009769F03CF02196C430D10557
:101A800079F6C0E0D0E0CCCF219750F6C3E0D0E0AB
:101A9000C7CF0E94B501009749F38130910531F419
:101AA000D8011496ED91FC9115970995029709F0CC
:101AB000B7CF83E090E0DF91CF911F910F91FF901E
:101AC0000895DB018F939F930E94CD0DBF91AF913D
:101AD000A29F800D911DA39F900DB29F900D112488
:101AE000089597FB072E16F4009407D077FD09D0D0
:101AF0000E94E00D07FC05D03EF4909581959F4F24
:101B00000895709561957F4F0895A1E21A2EAA1B42
:101B1000BB1BFD010DC0AA1FBB1FEE1FFF1FA2179D
:101B2000B307E407F50720F0A21BB30BE40BF50B9A
:101B3000661F771F881F991F1A9469F76095709523
:101B4000809590959B01AC01BD01CF010895052EB4
:101B500097FB1EF400940E94BE0D57FD07D00E9413
:101B6000850D07FC03D04EF40C94BE0D50954095A6
:101B7000309521953F4F4F4F5F4F08959095809539
:101B8000709561957F4F8F4F9F4F08950E94F40D80
:101B9000B7FF0895821B930B08950E94F40DA59F33
:101BA000900DB49F900DA49F800D911D1124089558
:101BB000B7FF0C94CD0D0E94CD0D821B930B0895A1
:101BC000AA1BBB1B51E107C0AA1FBB1FA617B70763
:101BD00010F0A61BB70B881F991F5A95A9F780957F
:101BE0009095BC01CD010895A29FB001B39FC001A3
:101BF000A39F700D811D1124911DB29F700D811D39
:101C00001124911D0895FB01DC0101900D9200202B
:101C1000E1F70895AEE0B0E0E0E1FEE00C940211DF
:101C20000D891E8986E08C831A8309838FEF9FE7D5
:101C30009E838D83AE01475E5F4F6F89788DCE01A5
:101C400001960E942C0EEF81F885E00FF11F1082A3
:101C50002E96E4E00C941E11ABE0B0E0E2E3FEE06F
:101C60000C94F4106C017B018A01FC01178216822E
:101C7000838181FFCCC1CE0101963C01F6019381A5
:101C8000F70193FD859193FF81917F01882309F4EA
:101C9000BAC1853239F493FD859193FF81917F011B
:101CA000853229F4B60190E00E942310E7CF912CF1
:101CB000212C312CFFE1F315D8F08B3279F038F478
:101CC000803279F08332A1F4232D20611DC08D3242
:101CD00061F0803369F4232D216016C0832D82606A
:101CE000382EE32DE4603E2E2AC0F32DF8601DC08F
:101CF00037FC2DC020ED280F2A3040F08E32B9F489
:101D000036FC81C1232D2064322E19C036FE06C058
:101D10008AE0989E200D1124922E11C0EAE02E9E9A
:101D2000200D1124222EF32DF0623F2E08C08C3698
:101D300021F4832D8068382E02C0883641F4F701E3
:101D400093FD859193FF81917F018111B3CF982FEE
:101D50009F7D9554933028F40C5F1F4F9FE3998328
:101D60000DC0833631F0833771F0833509F059C0E7
:101D700021C0F801808189830E5F1F4F88248394DE
:101D8000912C530113C02801F2E04F0E511CF801B1
:101D9000A080B18036FE03C0692D70E002C06FEFF5
:101DA0007FEFC5010E9418104C018201F32DFF77CF
:101DB0003F2E16C0280122E0420E511CF801A080DF
:101DC000B18036FE03C0692D70E002C06FEF7FEF77
:101DD000C5010E940D104C01F32DF0683F2E8201C9
:101DE00033FC1BC0822D90E088169906B0F4B60132
:101DF00080E290E00E9423102A94F4CFF50137FC92
:101E0000859137FE81915F01B60190E00E94231019
:101E100021102A9421E0821A91088114910471F70B
:101E2000E8C0843611F0893641F5F80137FE07C065
:101E300060817181828193810C5F1F4F08C0608136
:101E40007181072E000C880B990B0E5F1F4FF32D2D
:101E5000FF763F2E97FF09C090958095709561950C
:101E60007F4F8F4F9F4FF0683F2E2AE030E0A30155
:101E70000E945F10882E861845C0853731F4232DC7
:101E80002F7EB22E2AE030E025C0932D997FB92E07
:101E90008F36C1F018F4883579F0B5C0803719F065
:101EA000883721F0B0C0E92FE061BE2EB4FE0DC02E
:101EB000FB2DF460BF2E09C034FE0AC0292F266016
:101EC000B22E06C028E030E005C020E130E002C0BC
:101ED00020E132E0F801B7FE07C0608171818281A4
:101EE00093810C5F1F4F06C06081718180E090E09C
:101EF0000E5F1F4FA3010E945F10882E8618FB2DD6
:101F0000FF773F2E36FE0DC0232D2E7FA22E891483
:101F100058F434FE0BC032FC09C0832D8E7EA82EEF
:101F200005C0B82CA32C03C0B82C01C0B92CA4FE4A
:101F30000FC0FE01E80DF11D8081803321F49A2D40
:101F4000997EA92E09C0A2FE06C0B394B39404C022
:101F50008A2D867809F0B394A3FC11C0A0FE06C0B8
:101F6000B21488F4280C922C9B180EC0B21460F4A2
:101F7000B60180E290E00E942310B394F7CFB21430
:101F800018F42B1802C0982C212CA4FE10C0B60106
:101F900080E390E00E942310A2FE17C0A1FC03C0C2
:101FA00088E790E002C088E590E0B6010CC08A2D79
:101FB000867859F0A1FE02C08BE201C080E2A7FC46
:101FC0008DE2B60190E00E942310891438F4B60126
:101FD00080E390E00E9423109A94F7CF8A94F30153
:101FE000E80DF11D8081B60190E00E942310811060
:101FF000F5CF222009F442CEB60180E290E00E94A3
:1020000023102A94F6CFF6018681978102C08FEFC4
:102010009FEF2B96E2E10C941011FC0105906150AA
:1020200070400110D8F7809590958E0F9F1F0895EE
:10203000FC016150704001900110D8F78095909597
:102040008E0F9F1F08950F931F93CF93DF93FB0174
:10205000238121FD03C08FEF9FEF2CC022FF16C00C
:1020600046815781248135814217530744F4A0816A
:10207000B1819D012F5F3F4F318320838C93268157
:1020800037812F5F3F4F3783268314C08B01EC01CC
:10209000FB010084F185E02D0995892BE1F6D8013B
:1020A00016968D919C911797019617969C938E93F7
:1020B0001697CE01DF91CF911F910F910895FA01EC
:1020C000AA27283051F1203181F1E8946F936E7F77
:1020D0006E5F7F4F8F4F9F4FAF4FB1E03ED0B4E068
:1020E0003CD0670F781F891F9A1FA11D680F791FA9
:1020F0008A1F911DA11D6A0F711D811D911DA11DBA
:1021000020D009F468943F912AE0269F11243019C9
:10211000305D3193DEF6CF010895462F4770405D64
:102120004193B3E00FD0C9F7F6CF462F4F70405D13
:102130004A3318F0495D31FD4052419302D0A9F76E
:10214000EACFB4E0A6959795879577956795BA9568
:10215000C9F700976105710508959B01AC010A2E2E
:1021600006945795479537952795BA95C9F7620F05
:10217000731F841F951FA01D0895A6E1B0E044E0E1
:1021800050E00C94D810A8E1B0E042E050E00C948C
:10219000D810242F0E94E710252F0E94E7100C94DE
:1021A000D1100E94E610272F0C94E710DC01CB0120
:1021B000FC01F999FECF06C0F2BDE1BDF89A319657
:1021C00000B40D9241505040B8F70895262FF99968
:1021D000FECF1FBA92BD81BD20BD0FB6F894FA9A0A
:1021E000F99A0FBE019608952F923F924F925F92F7
:1021F0006F927F928F929F92AF92BF92CF92DF9217
:10220000EF92FF920F931F93CF93DF93CDB7DEB77B
:10221000CA1BDB0B0FB6F894DEBF0FBECDBF09940F
:102220002A88398848885F846E847D848C849B8466
:10223000AA84B984C884DF80EE80FD800C811B8174
:10224000AA81B981CE0FD11D0FB6F894DEBF0FBEA3
:0A225000CDBFED010895F894FFCF13
:10225A0000001010101000000000141414140000E4
:10226A00000015151515000000000404040E0400F2
:10227A002000010203040506070000000000000018
:10228A001F0000000000001F1F00000000001F1FA9
:10229A001F000000001F1F1F1F0000001F1F1F1F1D
:1022AA001F00001F1F1F1F1F1F001F001F1F1F1FB0
:1022BA001F1F1F1F1F1F1F1F1FCD0237077309D69E
:1022CA000257077707DF02D4090E0AE80200009DC9
:1022DA000ACD0237077309F702D007F007D602576B
:1022EA00077707DF02D4090E0A0003710899080963
:1022FA0003F70817095371202532642053682025F3
:10230A0033642053742025346400537120253264C9
:10231A002053682025336420546F20206F6666009E
:10232A005371202532642053682025336420546F6A
:10233A00203137353000537120253264205368200C
:10234A0025336420546F2533642E25316400342EDE
:10235A0034005045314A5044203233636D2076258B
:10236A007300496D70726F762E2062792044473867
:10237A00574D0020202564002020253364204D4835
:10238A007A003E20253364204D487A0020202534E7
:10239A0064204B487A003E20253464204B487A005A
:1023AA0020204D2564003E204D2564003E253464DE
:1023BA00204B487A003E202564200020206F666664
:1023CA00202000203137353020487A00202025335C
:1023DA00642E25316420487A003E20206F666620EC
:1023EA002020003E203137353020487A20003E2018
:1023FA002533642E25316420487A004D202020534D
:10240A0063616E6E696E670056464F002020202079
:10241A0020202020202020202020202000537175F9
:10242A00656C636820005368696674202020004345
:10243A0054435353202020004D656D6F72792073E9
:10244A0063616E20202000537465702020202000D4
:10245A0053746F72652020200046727141646A20AD
:02246A00200050
:00000001FF
