:100000000C9434000C9451000C940A070C94510089
:100010000C9451000C9451000C9451000C9451001C
:100020000C9451000C9451000C9451000C9451000C
:100030000C9451000C9429070C9451000C9451001D
:100040000C9451000C9451000C9451000C945100EC
:100050000C9451000C9451000C9451000C945100DC
:100060000C9451000C94510011241FBECFEFD8E026
:10007000DEBFCDBF12E0A0E0B1E0E2EFF0E202C0EF
:1000800005900D92A836B107D9F712E0A8E6B2E0C4
:1000900001C01D92AA39B107E1F70E94A1080C9492
:1000A00077100C94000089B190E08076907025E084
:1000B000959587952A95E1F78230910519F421E00D
:1000C00030E007C0019719F020E030E002C02FEFC8
:1000D0003FEFC90108950F931F93CF93DF9300E083
:1000E00010E080E090E061E070E00E94E70680E0D0
:1000F00091E00E94FD0680E090E061E070E00E94E7
:10010000E706E801CC0FDD1FC00FD11FCC0FDD1FAC
:10011000CA52DE4F888199810E94FD06EA81FB81E7
:10012000309709F009954A9BFECF0E944F0B0E9421
:10013000F207009781F01816190634F40F5F1F4F6D
:100140000430110571F6CBCF0150104017FFC9CF15
:1001500003E010E0C6CF0E94D707009731F381304B
:10016000910519F4EC81FD810995029709F0B9CF49
:1001700083E090E0DF91CF911F910F9108950F934D
:100180001F93CF93DF9300E010E080E090E061E008
:1001900070E00E94E70680E091E00E94FD0680E0AA
:1001A00090E061E070E00E94E706E801CC0FDD1FFF
:1001B000C00FD11FCC0FDD1FC755DE4F888199813D
:1001C0000E94FD06EA81FB81309709F009954A9B60
:1001D000FECF0E944F0B0E94F207009781F0181685
:1001E000190634F40F5F1F4F0530110571F6CBCFA0
:1001F0000150104017FFC9CF04E010E0C6CF0E94A5
:10020000D707009731F38130910519F4EC81FD8116
:100210000995029709F0B9CF0430110519F021E0D2
:1002200030E002C023E030E0C901DF91CF911F919F
:100230000F910895CF93DF930E94F206C0E5D3ECAF
:10024000109299021092980272C080E090E060E0F3
:1002500070E00E94E70681E191E00E94FD0681E0E6
:1002600090E060E070E00E94E70680919802805D77
:100270000E94FA0680919802909199020E94F50AD4
:100280006091820270918302809184029091850234
:10029000645B7E40814090400E943C08CE01019703
:1002A000F1F78091680290916902892B09F047C0AB
:1002B0000E94D707892B09F042C00E944F0B209162
:1002C0009402309195022817390744F56091820213
:1002D0007091830280918402909185020E9443096B
:1002E0000E946509209194023091950228173907E0
:1002F00024F41092910210929002809168029091E1
:100300006902892BE1F40E94D707892BC1F48091FF
:10031000900290919102893C910514F3809198028A
:1003200090919902019690939902809398028091FE
:100330009802909199020A970CF082CF86CFDF91B4
:10034000CF9108950F931F93809192029091930201
:10035000909399028093980289E090E061E070E0C8
:100360000E94E70600D000D000D0EDB7FEB731966E
:100370000EE612E0ADB7BEB712961C930E9311971E
:100380008EE191E09383828380919802909199020B
:10039000958384830E94680D8DB79EB706960FB62D
:1003A000F8949EBF0FBE8DBFC8010E94FD061F912D
:1003B0000F9108950F931F9300D000D000D0EDB798
:1003C000FEB731960EE612E0ADB7BEB712961C939B
:1003D0000E93119784E291E0938382838091960239
:1003E00090919702958384830E94680D8DB79EB784
:1003F00006960FB6F8949EBF0FBE8DBF89E090E0C1
:1004000061E070E00E94E706C8010E94FD061F91AE
:100410000F9108950F931F9389E090E061E070E0E1
:100420000E94E70600D000D000D0EDB7FEB73196AD
:100430000EE612E0ADB7BEB712961C930E9311975D
:100440008BE291E09383828380917E0290917F0280
:10045000958384830E94680D8DB79EB706960FB66C
:10046000F8949EBF0FBE8DBFC8010E94FD061F916C
:100470000F9108950F931F9389E090E061E070E081
:100480000E94E70600D000D000D0EDB7FEB731964D
:100490000EE612E0ADB7BEB712961C930E931197FD
:1004A00085E391E0938382838091940290919502F9
:1004B000958384830E94680D8DB79EB706960FB60C
:1004C000F8949EBF0FBE8DBFC8010E94FD061F910C
:1004D0000F910895EF92FF920F931F93CF93DF93A5
:1004E0000EE612E07AE3E72E71E0F72E89E090E065
:1004F00061E070E00E94E70600D000D000D0EDB7C8
:10050000FEB73196ADB7BEB712961C930E931197F6
:10051000F382E2828091980290919902958384837C
:100520000E94680D8DB79EB706960FB6F8949EBFD1
:100530000FBE8DBFC8010E94FD060E94F207009702
:1005400019F12091980230919902181619066CF44D
:10055000C901019690939902809398020A9734F208
:100560001092990210929802C1CFC90101979093FD
:1005700099028093980297FFB9CF89E090E0909319
:10058000990280939802B2CF0E94D707EC0100979E
:10059000A1F2809198029091990290939302809396
:1005A00092020E94650ACE01DF91CF911F910F91B7
:1005B000FF90EF900895CF92DF92EF92FF920F930A
:1005C0001F93CF93DF9300917E0210917F02FEE68E
:1005D000EF2EF2E0FF2EE0E4CE2EE1E0DE2E89E009
:1005E00090E061E070E00E94E70600D000D000D00B
:1005F000EDB7FEB73196ADB7BEB71296FC92EE924C
:100600001197D382C282158304830E94680D8DB72F
:100610009EB706960FB6F8949EBF0FBE8DBFC7015A
:100620000E94FD060E94F2070097A1F01816190615
:1006300044F40F5F1F4F0D3311058CF20CE310E0F3
:10064000CECF015010409FEF043C190744F604EC54
:100650001FEFC5CF0E94D707EC01009719F3109345
:100660007F0200937E0280919802909199020E94ED
:10067000650ACE01DF91CF911F910F91FF90EF900E
:10068000DF90CF900895AF92BF92CF92DF92EF921A
:10069000FF920F931F93CF93DF931EE6A12E12E0DC
:1006A000B12EB2E5CB2EB1E0DB2EA7E5EA2EA2E01B
:1006B000FA2E0CED15E089E090E061E070E00E9418
:1006C000E706209180023091810282E028353807C8
:1006D0003CF48EE692E06AE471E00E94610D29C06C
:1006E000ADB7BEB718970FB6F894BEBF0FBEADBF7B
:1006F000EDB7FEB731961296BC92AE921197D382A7
:10070000C282C9016AE070E00E94FD0C75836483B7
:10071000C9016AE070E00E94FD0C978386830E9405
:10072000680D8DB79EB708960FB6F8949EBF0FBEA2
:100730008DBF8EE692E00E94FD060E94F2070097B0
:1007400029F12091800230918102181619067CF45B
:10075000C901019690938102809380028D5D95403E
:100760000CF4A9CF1093810200938002A4CFC90199
:1007700001979093810280938002875592400CF0FC
:100780009ACFF0928102E092800295CF0E94D70723
:10079000EC01009791F280919802909199020E9449
:1007A000650ACE01DF91CF911F910F91FF90EF90DD
:1007B000DF90CF90BF90AF90089589E090E061E026
:1007C00070E00E94E70620918002309181028EE65F
:1007D00092E042E0283534076CF1ADB7BEB7189708
:1007E0000FB6F894BEBF0FBEADBFEDB7FEB73196E2
:1007F00012969C938E9311978BE591E0938382835D
:10080000C9016AE070E00E94FD0C75836483C90130
:100810006AE070E00E94FD0C978386830E94680D59
:100820004DB75EB7485F5F4F0FB6F8945EBF0FBE1F
:100830004DBF04C063E671E00E94610D8EE692E058
:100840000E94FD060895AF92BF92CF92DF92EF9281
:10085000FF920F931F93CF93DF939EE6C92E92E0F2
:10086000D92E8BE6A82E81E0B82E04EFE02E01E011
:10087000F02E09E110E000D000D000D0EDB7FEB7B7
:100880003196ADB7BEB71296DC92CE921197B38275
:10089000A2828091960290919702958384830E9410
:1008A000680D8DB79EB706960FB6F8949EBF0FBE23
:1008B0008DBF89E090E061E070E00E94E706C6012C
:1008C0000E94FD060E94F207009731F120919602E6
:1008D00030919702181619063CF42130310541F089
:1008E0002931310569F413C091E0243F390729F417
:1008F0001093970200939602BECF2931310539F447
:1009000081E090E09093970280939602B4CFF092AA
:100910009702E0929602AFCF0E94D707EC010097B2
:1009200089F20E94940ACE01DF91CF911F910F911D
:10093000FF90EF90DF90CF90BF90AF900895CF924F
:10094000DF92EF92FF920F931F93CF93DF930EE608
:1009500012E032E7C32E31E0D32E20E4E22EF12C58
:1009600089E090E061E070E00E94E70600D000D0EE
:1009700000D0EDB7FEB73196ADB7BEB712961C9357
:100980000E931197D382C282809194029091950226
:10099000958384830E94680D8DB79EB706960FB627
:1009A000F8949EBF0FBE8DBFC8010E94FD060E9435
:1009B000F207009711F120919402309195021816D8
:1009C000190674F4C90101969093950280939402DC
:1009D000813491052CF2F0929502E0929402C0CFFE
:1009E000C9010197909395028093940297FFB8CF25
:1009F0001092950210929402B3CF0E944F0B0E9466
:100A0000D707EC01009799F20E94940ACE01DF917A
:100A1000CF911F910F91FF90EF90DF90CF900895AD
:100A20000F931F93CF93DF930E94B60B8091920296
:100A30009091930290939902809398020E94F50AF4
:100A400010928C0210928D0210928E0210928F02E0
:100A50000E94F20680E090E060E070E00E94E7060D
:100A60008DE40E94FA0680919802805D0E94FA0649
:100A700009E010E04A9BFECF0E9465090E94F20740
:100A80000097A9F120919802309199021816190641
:100A90006CF4C901019690939902809398020A9789
:100AA0008CF010929902109298020CC0C901019723
:100AB000909399028093980297FF04C01093990233
:100AC0000093980281E090E060E070E00E94E70609
:100AD00080919802805D0E94FA0680919802909120
:100AE00099020E94F50A1092910210929002809150
:100AF000900290919102893C91058CF0209198028E
:100B000030919902809192029091930228173907AF
:100B100031F030939302209392020E94940A0E9433
:100B2000D707EC01009709F4A5CF80919802909126
:100B3000990290939302809392020E94650A0E9408
:100B4000940A229719F021E030E002C024E030E05E
:100B5000C901DF91CF911F910F910895AF92BF927C
:100B6000CF92DF92EF92FF920F931F93CF93DF9379
:100B70000E94B60B8AE090E09093990280939802CD
:100B80000E94F50AA0908202B0908302C090840275
:100B9000D090850210928C0210928D0210928E02DB
:100BA00010928F020E94F20680E090E060E070E018
:100BB0000E94E70688E791E00E94FD064A9BFECF6F
:100BC0000E9465090E94F2070097A9F1E090960241
:100BD000F09097028E9DB0018F9D700D9E9D700DBF
:100BE0001124882777FD8095982F209182023091DB
:100BF00083024091840250918502620F731F841F0B
:100C0000951F0027F7FC0095102FA80197010E945F
:100C1000320DCA01B901A80197010E94DE0C609350
:100C200082027093830280938402909385021092D3
:100C30009102109290020E9453000097E9F09C01EB
:100C4000442737FD4095542F809182029091830272
:100C5000A0918402B0918502820F931FA41FB51F3B
:100C60008093820290938302A0938402B0938502C2
:100C700010929102109290028091900290919102B4
:100C8000893C91051CF4860175011BC0E09082022D
:100C9000F09083020091840210918502EA14FB0413
:100CA0000C051D0571F080919802909199020E94A7
:100CB000650AE0908202F090830200918402109114
:100CC00085020E94D707EC01009719F457016801CB
:100CD00075CF80919802909199020E94650A0E94B6
:100CE000940A229719F023E030E002C022E030E0BD
:100CF000C901DF91CF911F910F91FF90EF90DF908D
:100D0000CF90BF90AF900895982F907F95B9289A73
:100D100021E0922F9A95F1F7289892E4392F3A958D
:100D2000F1F78295807F85B9289A2A95F1F728985E
:100D30009A95F1F708950F931F9380E20E9484061D
:100D400004EC19E0C8010197F1F780E20E948406E3
:100D5000C8010197F1F788E10E94840608E813E1D1
:100D6000C8010197F1F78CE00E948406C801019741
:100D7000F1F786E00E948406C8010197F1F782E04E
:100D80000E948406C8010197F1F781E00E94840661
:100D9000C8010197F1F71F910F910895982F907F47
:100DA000926095B9289A21E0922F9A95F1F72898A8
:100DB00092E4392F3A95F1F78295807F826085B968
:100DC000289A2A95F1F728989A95F1F70895672BB4
:100DD00011F4805801C080540E94840682E48A95F0
:100DE000F1F7089581E00E94840688E893E1019775
:100DF000F1F708950E94CE060895CF93DF93EC019A
:100E000003C021960E94CE0688818823D1F7DF9106
:100E1000CF9108951F920F920FB60F9211248F93C6
:100E20009F9380916C0290916D024C9B02C0019641
:100E300001C0019790936D0280936C0282EE94E062
:100E40000197F1F79F918F910F900FBE0F901F9018
:100E500018951F920F920FB60F9211242F938F9314
:100E60009F938091860290918702809590959093B0
:100E70008500809384008091900290919102019668
:100E80009093910280939002809168029091690200
:100E9000892B59F08091800290918102885592406F
:100EA00024F085B198E0892785B99F918F912F9182
:100EB0000F900FBE0F901F90189587E080937A00D7
:100EC00080E280937E0085E480937C000895E99A17
:100ED000E9E6F0E08081886080831092800081E004
:100EE00080938100EFE6F0E08081816080837894D8
:100EF00008956F927F928F929F92AF92BF92CF92FE
:100F0000DF92EF92FF920F931F93CF93DF935B01DA
:100F10006C01CEE6D2E080E8E82E86E9F82E88E97A
:100F2000082F112D26C059016A01260D371D481DB5
:100F3000591DDA01C9018E0D9F1DA01FB11FB7FDFC
:100F400002C0EF5FF0CFE05DE99382E0C637D807DB
:100F5000F9F0AE0CBF1CC01ED11EC801B7012AE0BB
:100F600030E040E050E00E94320DC901DA017C011E
:100F70008D016624772443016E187F08800A910A48
:100F8000A60195012E193F09400B510BE0E0CBCF94
:100F9000DF91CF911F910F91FF90EF90DF90CF9055
:100FA000BF90AF909F908F907F906F9008954A9BD5
:100FB00003C020E030E014C080E090E028EA31E691
:100FC000F9013197F1F74A9B05C004973CF421E001
:100FD00030E006C001968530910591F722E030E0BF
:100FE000C901089580916C0290916D02009719F4E7
:100FF00020E030E00CC0181619061CF02FEF3FEF70
:1010000002C021E030E010926D0210926C02C90122
:101010000895449A5F9A80E593EC0197F1F7439A1B
:101020000895439880E593EC0197F1F75F98089550
:1010300040E050E0E3E087FF02C0419A01C04198E0
:1010400033E02E2F2A95F1F7409A2E2F2A95F1F7AB
:1010500040984F5F5F4F4831510529F0660F771F69
:10106000881F991FE8CF832F8A95F1F7429A832F23
:101070008A95F1F742980895AF92BF92CF92DF928E
:10108000EF92FF920F931F935B016C0128E23AE00D
:1010900040E050E00E94100D79018A01C801B701BB
:1010A00028ED35EF4FEF5FEF0E94DE0C6A0D7B1DE0
:1010B0008C1D9D1D42E0660F771F881F991F4A9562
:1010C000D1F73EE0EE0CFF1C001F111F3A95D1F73F
:1010D000E60EF71E081F191FC801B7010E94180865
:1010E0001F910F91FF90EF90DF90CF90BF90AF9046
:1010F000089541984098429863E070E080E090E065
:101100000E94180867EC73E080E090E00E941808E5
:1011100066E470E180E090E00E94180861EA78E6F9
:1011200081E290E00E94180860E070E880E790E0BB
:101130000E94180862E470E180E090E00E941808C4
:1011400008950F931F93CF93DF938FEF84B985B9E1
:101150008FE187B918B8449A80E88AB98FE78BB9CC
:101160000E949B0687E080937A0080E280937E0055
:1011700085E480937C000E94240B209180023091B2
:101180008102442737FD4095542F60E47BE48CE4D2
:1011900090E00E94100D20938602309387024093C6
:1011A0008802509389020E9467070E94790800D044
:1011B00000D000D0EDB7FEB731960EE612E0ADB725
:1011C000BEB712961C930E9311978EEE91E0938307
:1011D00082838EEF91E0958384830E94680D8DB7A2
:1011E0009EB706960FB6F8949EBF0FBE8DBF80E0E7
:1011F00090E060E070E00E94E706C8010E94FD06F2
:1012000088E893E129E130E0F9013197F1F701979E
:10121000D9F7C1E0D0E080918A0290918B028330AF
:10122000910591F08430910534F48130910549F0B5
:10123000029721F515C084309105B9F00597F1F4B6
:101240000CC00E94AE0502C00E94100590938B0254
:1012500080938A020E94940ADECF0E947F0C09C00C
:1012600082E090E00E94BF0004C084E090E00E9411
:101270006B0090938B0280938A02CDCFD0938B0228
:10128000C0938A02C8CF1F93CF93DF930E94790740
:1012900084E090E060E070E00E94E706C1E0D0E00A
:1012A000FE01E259FD4F1081C530D10519F48EE2DF
:1012B0000E94FA06812F0E94FA062196C830D105B5
:1012C00079F7DF91CF911F910895EF92FF920F93DD
:1012D0001F93CF93DF9389B1482F50E080916A022A
:1012E00090916B029A0122703070892B79F0232B38
:1012F000E9F010928C0210928D0210928E021092E0
:101300008F0210926B0210926A0210C0232B71F4AC
:1013100010928C0210928D0210928E0210928F0207
:1013200081E090E090936B0280936A028091680262
:10133000909169028A0101701070892BA9F0012B2C
:1013400071F1439880E593EC0197F1F75F98109263
:101350008C0210928D0210928E0210928F021092C7
:101360006902109268021BC00E944F0BEC010E94A0
:101370007C0B012BB1F480E090E00E947C0B0E947A
:10138000090810928C0210928D0210928E02109217
:101390008F0281E090E09093690280936802C0E040
:1013A000D0E02091800230918102442737FD4095A2
:1013B000542F60E47BE48CE490E00E94100D2093B5
:1013C0008602309387024093880250938902E0900E
:1013D0008202F09083020091840210918502809134
:1013E0008C0290918D02A0918E02B0918F02E8162E
:1013F000F9060A071B0709F460C080916802909102
:101400006902892BA9F060917E0270917F02882782
:1014100077FD8095982F28EE33E040E050E00E9461
:10142000DE0CE60EF71E081F191FC801B7011EC00B
:1014300080916A0290916B02892B91F060917E02FB
:1014400070917F02882777FD8095982F28EE33E0F2
:1014500040E050E00E94DE0CE60EF71E081F191F48
:10146000C801B701645B7E40814090400E943C0807
:10147000C801B7010E9443098091820290918302C2
:10148000A0918402B091850280938C0290938D028A
:10149000A0938E02B0938F028FE090E060E070E046
:1014A0000E94E7068091680290916902892B11F0F1
:1014B00084E501C082E50E94FA06CE01DF91CF915A
:1014C0001F910F91FF90EF9008950F931F938B3012
:1014D000910538F58C0133E0000F111F3A95E1F7C3
:1014E000880F991F080F191F0C591F4F4091820236
:1014F000509183026091840270918502C8010E941C
:10150000750F6091800270918102C80104960E945B
:101510007D0F60917E0270917F02C80106960E9445
:101520007D0F1F910F91089580E090E068E777E4C8
:101530000E947D0F609194027091950282E090E08C
:101540000E947D0F60918A0270918B0284E090E08E
:101550000E947D0F609192027091930286E090E06C
:101560000E947D0F609196027091970288E090E052
:101570000E947D0F0895CF93DF93109295021092F1
:10158000940281E090E090938B0280938A02109203
:1015900093021092920289E190E0909397028093D7
:1015A00096020E94940A80E59EECA3E1B0E080934D
:1015B000820290938302A0938402B093850287E510
:1015C00092E0909381028093800210927F021092A9
:1015D0007E02C0E0D0E0CE010E94650A2196CB30A9
:1015E000D105C9F7DF91CF9108950F931F938B30E9
:1015F000910538F58C0153E0000F111F5A95E1F762
:10160000880F991F080F191F0C591F4FC8010E94FE
:10161000690F609382027093830280938402909397
:101620008502C80104960E946F0F909381028093F7
:101630008002C80106960E946F0F90937F028093EC
:101640007E021F910F91089580E090E00E946F0F3D
:101650008857974419F00E94BB0A089582E090E0F1
:101660000E946F0F909395028093940284E090E023
:101670000E946F0F90938B0280938A0286E090E025
:101680000E946F0F909393028093920288E090E003
:101690000E946F0F90939702809396020895809115
:1016A0007A00806C80937A0080917A0086FDFCCF6E
:1016B000809178009091790024ED33E0281B390B5C
:1016C00037FF02C020E030E080916802909169020B
:1016D000892B69F48091940290919502281739071B
:1016E00034F080918A0290918B02059711F4449A0C
:1016F00001C04498C90108950F931F93CF93DF93BE
:10170000182F092F80E090E061E070E00E94E7066A
:10171000212F302FC9018C01C0E1D0E006C082E04A
:101720000E94CE060350104021970330110514F09B
:101730002097A9F70130110529F00230110539F47D
:1017400081E001C080E00E94CE068E0107C080E2E9
:10175000FACF80E20E94CE0601501040101611060A
:10176000C4F3DF91CF911F910F910895EF92FF92F3
:101770000F931F93CF93DF9380E40E948406EE249F
:10178000FF2410C0F80181918F010E94CE0621969E
:10179000C830D105B9F70894E11CF11CF3E0EF164D
:1017A000F10459F0870183E0000F111F8A95E1F7DA
:1017B0000E5F1D4FC0E0D0E0E5CFDF91CF911F91CC
:1017C0000F91FF90EF900895EF92FF920F931F9368
:1017D000CF93DF9380E40E948406EE24FF2410C0A0
:1017E000F80181918F010E94CE062196C830D10563
:1017F000B9F70894E11CF11CF8E0EF16F10459F078
:10180000870183E0000F111F8A95E1F7065E1D4FE7
:10181000C0E0D0E0E5CFDF91CF911F910F91FF9015
:10182000EF9008958F929F92AF92BF92CF92DF92E6
:10183000EF92FF920F931F93CF93DF9359016A01A9
:10184000AC01CB01DA017C018D01C0E0D0E094EC69
:10185000892E99E0992E22C0C801B701645B7E40B1
:10186000814090400E943C080E94D707892B19F0C4
:10187000C1E0D0E01CC0C4010197F1F70E944F0BFA
:101880008C179D071CF00E944F0BEC018AE090E042
:10189000A0E0B0E0E80EF91E0A1F1B1FEA14FB04CB
:1018A0000C051D05CCF2D7FF02C0C0E0D0E0CE0190
:1018B000DF91CF911F910F91FF90EF90DF90CF902C
:1018C000BF90AF909F908F900895645B7E40814061
:1018D00090400E943C080E94D707892B19F021E014
:1018E00030E00BC00E944F0B97FD05C00E944F0BCC
:1018F0009C0197FF02C020E030E0C90108950F93DA
:101900001F93CF93DF930E94F2060E94E40B449A48
:10191000C0E0D0E0BE01882777FD8095982F209108
:101920008202309183024091840250918502620FBD
:10193000731F841F951F0E94650C8C010E94D7079E
:10194000892B39F081E090E0DF91CF911F910F91C9
:101950000895C80163E070E00E94FD0C162FCE01CF
:1019600060E070E00E94E706193070F0812F90E08F
:10197000803191051CF0E8E0F0E002C0FC013897EE
:10198000E65AFD4F808101C080E20E94FA06CE0136
:1019900061E070E00E94E706183018F0E8E0F0E03F
:1019A00002C0E12FF0E0E65AFD4F80810E94FA0666
:1019B0002196C031D1050CF0ABCFACCF629FD001E6
:1019C000739FF001829FE00DF11D649FE00DF11DFA
:1019D000929FF00D839FF00D749FF00D659FF00DA9
:1019E0009927729FB00DE11DF91F639FB00DE11D96
:1019F000F91FBD01CF011124089597FB092E072679
:101A00000AD077FD04D049D006D000201AF4709592
:101A100061957F4F0895F6F7909581959F4F0895B2
:101A2000A1E21A2EAA1BBB1BFD010DC0AA1FBB1FE2
:101A3000EE1FFF1FA217B307E407F50720F0A21B54
:101A4000B30BE40BF50B661F771F881F991F1A94C1
:101A500069F760957095809590959B01AC01BD01EB
:101A6000CF01089597FB092E05260ED057FD04D00F
:101A7000D7DF0AD0001C38F4509540953095219559
:101A80003F4F4F4F5F4F0895F6F7909580957095B3
:101A900061957F4F8F4F9F4F0895AA1BBB1B51E14C
:101AA00007C0AA1FBB1FA617B70710F0A61BB70BCE
:101AB000881F991F5A95A9F780959095BC01CD0173
:101AC0000895FB01DC0101900D920020E1F70895DB
:101AD000AEE0B0E0EEE6FDE00C944E100D891E89FC
:101AE00086E08C831A8309838FEF9FE79E838D8323
:101AF0009E01275E3F4FCE0101966F89788DA90127
:101B00000E948C0D2F813885020F131FF80110825F
:101B10002E96E4E00C946A10ABE0B0E0E2E9FDE060
:101B20000C9440103C012B015A01FC0117821682D3
:101B3000838181FD03C06FEF7FEFC6C19AE0892EDC
:101B40001E010894211C311CF3012381F20123FDA5
:101B5000859123FF81912F01882309F4B2C1853239
:101B600039F423FD859123FF81912F01853229F4DA
:101B700090E0B3010E94980FE7CF982FFF24EE2446
:101B80009924FFE1FF15D0F09B3269F09C3228F4D4
:101B9000903259F0933291F40EC09D3249F0903357
:101BA00069F441E024C052E0F52A84E0F82A28C014
:101BB00098E0F92A25C0E0E1FE2A22C0F7FC29C0FE
:101BC000892F80538A3070F4F6FE05C0989C902CC3
:101BD0001124980E15C0E89CE02C1124E80EF0E2C8
:101BE000FF2A0EC09E3229F4F6FC6BC140E4F42AB1
:101BF00007C09C3619F450E8F52A02C0983649F41B
:101C0000F20123FD959123FF91912F01992309F072
:101C1000B8CF892F8554833018F08052833038F440
:101C200044E050E0A40EB51E5FE359830FC0933625
:101C300031F0933779F0933509F056C020C0F501A3
:101C40008081898342E050E0A40EB51E610101E06D
:101C500010E012C0F501C080D180F6FC03C06FEF28
:101C60007FEF02C0692D70E042E050E0A40EB51E87
:101C7000C6010E948D0F8C015FE7F52214C0F501AB
:101C8000C080D180F6FC03C06FEF7FEF02C0692DEA
:101C900070E042E050E0A40EB51EC6010E94820F23
:101CA0008C0150E8F52AF3FE07C01AC080E290E0EC
:101CB000B3010E94980FEA948E2D90E0081719073F
:101CC000A8F30EC0F601F7FC8591F7FE81916F0134
:101CD00090E0B3010E94980FE110EA940150104087
:101CE0000115110579F7EAC0943611F0993669F5B6
:101CF000F7FE08C0F501208131814281538184E0E3
:101D000090E00AC0F501808191819C01442737FD54
:101D10004095542F82E090E0A80EB91E9FE6F9226C
:101D200057FF09C050954095309521953F4F4F4F33
:101D30005F4FE0E8FE2ACA01B901A1012AE030E0C4
:101D40000E94C40FD82ED21840C0953729F41F2DF9
:101D50001F7E2AE030E01DC01F2D197F9F3661F0E5
:101D6000903720F4983509F0ACC00FC0903739F0A7
:101D7000983709F0A6C004C028E030E00AC010611E
:101D800014FD146020E130E004C014FD166020E171
:101D900032E017FF08C0F501608171818281938173
:101DA00044E050E008C0F50180819181BC0180E0F1
:101DB00090E042E050E0A40EB51EA1010E94C40FC5
:101DC000D82ED2188FE7F82EF122F6FE0BC05EEF68
:101DD000F522D91438F4F4FE07C0F2FC05C08FEEEA
:101DE000F82202C01D2D01C0192DF4FE0DC0FE0108
:101DF000ED0DF11D8081803319F499EEF92208C0B0
:101E00001F5FF2FE05C003C08F2D867809F01F5FAB
:101E10000F2DF3FC14C0F0FE0FC01E1510F09D2C0A
:101E20000BC09D2C9E0C911A1E2D06C080E290E0E6
:101E3000B3010E94980F1F5F1E15C0F304C01E154A
:101E400010F4E11A01C0EE2404FF0FC080E390E01B
:101E5000B3010E94980F02FF1DC001FD03C088E777
:101E600090E00EC088E590E00BC0802F867891F05E
:101E700001FF02C08BE201C080E2F7FC8DE290E03E
:101E8000B3010E94980F06C080E390E0B3010E9466
:101E9000980F9A94D914C0F3DA94F101ED0DF11D65
:101EA000808190E0B3010E94980FDD20A9F706C061
:101EB00080E290E0B3010E94980FEA94EE20C1F70F
:101EC00043CEF30166817781CB012B96E2E10C943E
:101ED0005C10A6E1B0E044E050E00C942410A8E1CE
:101EE000B0E042E050E00C942410242F0E94331004
:101EF000252F0E9433100C947D0F0E943210272F43
:101F00000C943310FC010590615070400110D8F71B
:101F1000809590958E0F9F1F0895FC016150704031
:101F200001900110D8F7809590958E0F9F1F08950E
:101F30000F931F93CF93DF938C01EB018B8181FF74
:101F40001BC082FF0DC02E813F818C819D8128178F
:101F5000390764F4E881F9810193F983E88306C0C5
:101F6000E885F985802F0995892B31F48E819F8131
:101F700001969F838E8302C00FEF1FEFC801DF9190
:101F8000CF911F910F910895FA01AA27283051F19E
:101F9000203181F1E8946F936E7F6E5F7F4F8F4F9A
:101FA0009F4FAF4FB1E03ED0B4E03CD0670F781FF9
:101FB000891F9A1FA11D680F791F8A1F911DA11DDE
:101FC0006A0F711D811D911DA11D20D009F4689417
:101FD0003F912AE0269F11243019305D3193DEF6BF
:101FE000CF010895462F4770405D4193B3E00FD075
:101FF000C9F7F6CF462F4F70405D4A3318F0495D60
:1020000031FD4052419302D0A9F7EACFB4E0A69542
:102010009795879577956795BA95C9F70097610564
:10202000710508959B01AC010A2E069457954795BA
:1020300037952795BA95C9F7620F731F841F951FAF
:10204000A01D0895DC01CB01FC01F999FECF06C06B
:10205000F2BDE1BDF89A319600B40D924150504066
:10206000B8F70895262FF999FECF1FBA92BD81BD0A
:1020700020BD0FB6F894FA9AF99A0FBE019608950A
:102080002F923F924F925F926F927F928F929F9288
:10209000AF92BF92CF92DF92EF92FF920F931F9376
:1020A000CF93DF93CDB7DEB7CA1BDB0B0FB6F89427
:1020B000DEBF0FBECDBF09942A88398848885F8467
:1020C0006E847D848C849B84AA84B984C884DF80D8
:1020D000EE80FD800C811B81AA81B981CE0FD11DBC
:1020E0000FB6F894DEBF0FBECDBFED010895F89492
:0220F000FFCF20
:1020F20020202020202020202020202020202020DE
:10210200004D2020205363616E6E696E67002020AF
:102112004D256400202025642020002020252D321A
:10212200642020200020202564003E204D256400EC
:102132003E20252D3264202020003E206F6666203E
:1021420020003E2025642E25642000202025642EB8
:1021520025640020206F66662020003E2025642032
:1021620020003E202564200056464F0053717565BD
:102172006C6368200053746570202020200053682F
:1021820069667420202000435443535320202000CA
:1021920053746F7265202020007C013A029F0485EF
:1021A20001DA0123048E010A02DB029701DD0343F7
:1021B20003A001A2016A024D656D6F7279207363FB
:1021C200616E202020007C013A029F048E010A02E7
:1021D200DB029701DD034303C70100001A015045EA
:1021E200314A5044203233636D2076257300342EF9
:1021F200310000001010101000000000141414141C
:102202000000000015151515000000000000000078
:10221200001F0000000000001F1F00000000001F40
:102222001F1F000000001F1F1F1F0000001F1F1F95
:102232001F1F00001F1F1F1F1F1F001F001F1F1F28
:102242001F1F1F1F1F1F1F1F1F1F2000010203042C
:0822520005060700350C000031
:00000001FF
