:100000000C943C000C9459000C9459000C94590029
:100010000C9459000C9459000C9459000C945900FC
:100020000C9459000C94C3010C9459000C94590081
:100030000C9459000C948F010C9449010C945900B4
:100040000C9459000C9459000C9459000C945900CC
:100050000C9459000C9459000C9459000C945900BC
:100060000C9459000C9459000000FF00000000019E
:10007000000000000000000011241FBECFEFD8E0F8
:10008000DEBFCDBF13E0A0E0B1E0E6E3F5E202C0E1
:1000900005900D92A636B107D9F723E0A6E6B3E0A6
:1000A00001C01D92AE39B207E1F70E9413050C940E
:1000B00099120C940000807F85B9289A00C0289876
:1000C00082E48A95F1F700C0089593B1282F207F2C
:1000D0009C70922B95B9289A00C0289892E49A9522
:1000E000F1F700C093B19C708295807F892B85B910
:1000F000289A00C0289882E48A95F1F700C00895F4
:1001000087E893E10197F1F700C0000080E30E94C7
:100110005B0083EC99E00197F1F700C0000080E3F9
:100120000E945B0089EF90E00197F1F700C00000AA
:1001300080E30E945B0089EF90E00197F1F700C037
:10014000000080E20E945B0089EF90E00197F1F7E8
:1001500000C0000088E20E94650089EF90E00197EE
:10016000F1F700C0000088E00E94650089EF90E090
:100170000197F1F700C0000081E00E94650089EF5F
:1001800090E00197F1F700C0000086E00E94650052
:1001900089EF90E00197F1F700C000008CE00E9429
:1001A000650089EF90E00197F1F700C00000089525
:1001B00093B1282F207F9C70922B926095B9289A3A
:1001C00000C0289892E49A95F1F700C093B19C7012
:1001D0008295807F892B826085B9289A00C02898F3
:1001E00082E48A95F1F700C00895CF93DF93CDB7ED
:1001F000DEB728970FB6F894DEBF0FBECDBF98E0EC
:10020000E5EAF1E0DE01119601900D929A95E1F791
:100210009B016430710514F023E030E0220F331F9E
:10022000E1E0F0E0EC0FFD1FE20FF31F9081890F7A
:1002300080680E94650082E48A95F1F700C02896E4
:100240000FB6F894DEBF0FBECDBFDF91CF910895FA
:1002500081E00E94650087E893E10197F1F700C013
:10026000000086E00E94650089EF90E00197F1F7B9
:1002700000C0000008950C94D800CF93DF93EC01E8
:100280008991882319F00E94D800FACFDF91CF918D
:1002900008951F920F920FB60F9211242F938F93F0
:1002A0009F93EF93FF938091660324E08202C00145
:1002B00011248F70809366034C9B03C082608093EF
:1002C00066034B9B05C08091660381608093660343
:1002D000E09166030E2E000CFF0BE859FF4FE491EE
:1002E00080918303E80FE0938303FF91EF919F9147
:1002F0008F912F910F900FBE0F901F901895A99A74
:10030000EEE6F0E08081826080838DE787BD16BCD9
:1003100084B5826084BD85B5826085BD08951F92D5
:100320000F920FB60F9211242F938F939F9380916A
:1003300073039091740380959095909385008093BA
:10034000840080917F0390918003019690938003B5
:1003500080937F038091690390916A03892B59F000
:1003600080916D0390916E038835924024F095B191
:1003700088E0892785B99F918F912F910F900FBEAB
:100380000F901F9018951F920F920FB60F92112485
:100390002F938F939F938091690390916A03892B88
:1003A00069F080916D0390916E038735924031F42E
:1003B00081EE8093B2008BB180588BB99F918F9161
:1003C0002F910F900FBE0F901F9018950E947F01E4
:1003D0001092800081E080938100EFE6F0E0808160
:1003E000816080831092B0001092B100E0E7F0E0ED
:1003F0008081816080837894089587E080937A007B
:1004000080E280937E0085E480937C00089580E004
:1004100090E04A9912C0E7EAF1E63197F1F700C09F
:1004200000004A9905C0019685309105A1F706C0E4
:10043000049721F081E090E00895089582E090E033
:100440000895F89480918303882369F08091830351
:1004500018162CF080918303880F880B01C081E06F
:100460001092830301C080E07894082E000C990B51
:1004700008954F925F926F927F928F929F92AF9268
:10048000BF92CF92DF92EF92FF920F931F93CF9381
:10049000DF936B017C01CAE8D3E002E913E020E8B6
:1004A00036E948E950E08AE0882E912CA12CB12C45
:1004B00080E026013701421A530A640A750A77FC64
:1004C00004C08F5F73016201F4CF805D8993CA011C
:1004D000B901A50194010E94150F0C171D0741F7E2
:1004E000DF91CF911F910F91FF90EF90DF90CF9010
:1004F000BF90AF909F908F907F906F905F904F9044
:100500000895FF920F931F93CF93DF930E943902B8
:1005100060E070E084E090E00E94F5000BE813E0FA
:10052000C1E0D0E0F801F1908F01C530D10519F498
:100530008EE20E943B018F2D0E943B012196C83024
:10054000D10581F7DF91CF911F910F91FF90089511
:1005500061E070E080E090E00E94F5008091880307
:1005600090918903E0916C0340916B033091850376
:10057000209184030A97E9F4809187038F938091F7
:1005800086038F93EF934F933F932F938DEA91E0E0
:100590009F938F938AE893E09F938F930E94780FA5
:1005A0008DB79EB70A960FB6F8949EBF0FBE8DBF4B
:1005B00058C080916D0390916E03873552E0950786
:1005C000BCF4EF934F933F932F9382EC91E09F9372
:1005D0008F938AE893E09F938F930E94780F8DB753
:1005E0009EB708960FB6F8949EBF0FBE8DBF39C058
:1005F000873552E09507B9F4EF934F933F932F93CC
:1006000088ED91E09F938F938AE893E09F938F9377
:100610000E94780F8DB79EB708960FB6F8949EBFCC
:100620000FBE8DBF1EC06AE070E00E94DF0E9F9378
:100630008F937F936F93EF934F933F932F938EEE10
:1006400091E09F938F938AE893E09F938F930E940A
:10065000780F8DB79EB70C960FB6F8949EBF0FBE5D
:100660008DBF8AE893E00C943D01449A2A9A8FE466
:1006700093EC0197F1F700C00000439A089580E0E1
:1006800090E00E94830780E090E00E944A070E9469
:10069000350310927B0310927C0310927D0310921D
:1006A0007E0381E090E090936A038093690380E089
:1006B00090E0089543988FE493EC0197F1F700C020
:1006C00000002A98089528E130E087FF02C0419A8F
:1006D00001C0419843E04A95F1F70000409A43E099
:1006E0004A95F1F700004098660F771F881F991F01
:1006F0002150310951F783E08A95F1F70000429AC1
:1007000043E04A95F1F700004298089541984098D7
:10071000429863E070E080E090E00E94630367EC41
:1007200073E080E090E00E94630366E470E180E0A3
:1007300090E00E94630361EA78E681E190E00E9424
:10074000630360E070E880E790E00E94630362E486
:1007500070E180E090E00C9463038F929F92AF92DF
:10076000BF92CF92DF92EF92FF92C0907703D0902A
:1007700078030D2C000CEE08FF08C60ED71EE81EED
:10078000F91EC701B60128E23AE040E050E00E94BD
:10079000F30EA8EDB5EF0E94490FC60ED71EE81E56
:1007A000F91E82E0CC0CDD1CEE1CFF1C8A95D1F7F3
:1007B000DA01C9012EE0880F991FAA1FBB1F2A95D5
:1007C000D1F7BC01CD016C0D7D1D8E1D9F1DFF90CD
:1007D000EF90DF90CF90BF90AF909F908F900C9450
:1007E0006303CF92DF92EF92FF921F93CF93DF9339
:1007F00019B12091670330916803812F8270232BF8
:10080000B1F0882369F110927B0310927C0310925F
:100810007D0310927E03109268031092670360E0DC
:1008200070E083E090E00E94F50080E217C0811143
:1008300017C010927B0310927C0310927D031092DC
:100840007E0381E090E0909368038093670360E00B
:1008500070E083E090E00E94F50083E00E94D80001
:100860008091690390916A031170892BA9F011237B
:1008700009F44AC01092B1005F980E945A03109286
:100880007B0310927C0310927D0310927E031092E2
:100890006A031092690338C00E941A07EC010E9493
:1008A0008307CE010E944A07111130C080916D0369
:1008B00090916E038735924019F510928003109243
:1008C0007F0389EF90E00197F1F700C0000080916D
:1008D0007F0390918003489B0BC08431910514F4F1
:1008E0004899FBCF489912C082E08093B10008C0BC
:1008F000449734F48091690390916A03892B09F33A
:100900000E943F03EC0102C0C0E0D0E020916D03E3
:1009100030916E03032E000C440B550B60E47BE416
:100920008CE490E00E94F30E2093730330937403E1
:100930004093750350937603C0906F03D09070037B
:10094000E0907103F090720380917B0390917C039F
:10095000A0917D03B0917E03C816D906EA06FB0676
:1009600009F458C08091690390916A03892B79F04A
:10097000A0916B03B0916C0328EE33E00E94340F1A
:10098000C60ED71EE81EF91EC701B60118C0809119
:10099000670390916803892B61F0A0916B03B0917C
:1009A0006C0328EE33E00E94340FC60ED71EE81EFB
:1009B000F91EC701B601645B7E40814091090E9427
:1009C000AD03C701B6010E94810280916F0390912F
:1009D0007003A0917103B091720380937B03909395
:1009E0007C03A0937D03B0937E030E94A80260E085
:1009F00070E082E190E00E94F5008091690390919F
:100A00006A03892B19F086E092E002C089E092E047
:100A10000E943D01CE01DF91CF911F91FF90EF9099
:100A2000DF90CF9008958FEF84B98BEF85B98FE178
:100A300087B918B8449A80E88AB98FE78BB90E94C1
:100A400080000E94FD010E94C80620916D03309134
:100A50006E03032E000C440B550B60E47BE48CE426
:100A600090E00E94F30E209373033093740340933D
:100A70007503509376030E94E6010E9486038CE082
:100A800092E09F938F9380E192E09F938F938AE807
:100A900093E09F938F930E94780F60E070E080E076
:100AA00090E00E94F5008AE893E00E943D0161E039
:100AB00070E080E090E00E94F50084E292E00E9405
:100AC0003D0162E070E080E090E00E94F50087E385
:100AD00092E00E943D012FEB87E299E02150804097
:100AE0009040E1F700C0000062E070E080E090E03C
:100AF0000E94F50082E193E00E943D010F900F906B
:100B00000F900F900F900F90C1E0D0E0809179038B
:100B100090917A0383309105B1F054F481309105BE
:100B200079F0029711F582E090E00E94160E18C04D
:100B30008430910589F00597C1F40E94190810C00E
:100B40000E94910C02C00E946F0D90937A038093D3
:100B500079030E94BA05DACF84E090E00E94750E16
:100B600090937A0380937903D1CFD0937A03C09383
:100B70007903CCCF80E090E00E943112883797440F
:100B800031F068E777E480E090E00E943F1282E075
:100B900090E00E9431126091840370918503861762
:100BA000970721F082E090E00E943F1284E090E0FD
:100BB0000E9431126091790370917A03861797072A
:100BC00021F084E090E00E943F1286E090E00E94D5
:100BD000311260918103709182038617970721F08B
:100BE00086E090E00E943F1288E090E00E9431127F
:100BF00060918603709187038617970721F088E03C
:100C000090E00E943F128AE090E00E9431126091D1
:100C10007703709178038617970721F08AE090E0B8
:100C20000C943F120895CF93DF938B30910518F504
:100C30002AE0289FE001299FD00D1124CC59DF4FD5
:100C4000CE010E942B1260936F0370937003809308
:100C5000710390937203CE0104960E943112909317
:100C60006E0380936D03CE0106960E94311290931D
:100C70006C0380936B03DF91CF9108950F931F93C3
:100C8000CF93DF938B30910508F03FC02AE0289F77
:100C9000E001299FD00D1124CC59DF4FCE010E94D5
:100CA0002B12DC01CB0140916F03509170036091D6
:100CB00071037091720384179507A607B70719F09F
:100CC000CE010E9437128E010C5F1F4FC8010E9497
:100CD000311260916D0370916E038617970719F0BA
:100CE000C8010E943F122696CE010E9431126091E7
:100CF0006B0370916C038617970739F0CE01DF9173
:100D0000CF911F910F910C943F12DF91CF911F91C2
:100D10000F910895CF93DF9310928503109284036F
:100D200081E090E090937A0380937903109282039C
:100D30001092810389E190E090938703809386036A
:100D40000E94BA0580E59EECA3E1B0E080936F03BA
:100D500090937003A0937103B093720386E592E0C1
:100D600090936E0380936D0310926C0310926B034B
:100D70001092780310927703C0E0D0E0CE010E9479
:100D80003E062196CB30D105C9F7DF91CF9108956A
:100D900080E090E00E9431128837974411F00C9463
:100DA0008A0682E090E00E9431129093850380933E
:100DB000840384E090E00E94311290937A03809340
:100DC000790386E090E00E94311290938203809331
:100DD000810388E090E00E94311290938703809312
:100DE00086038AE090E00E9431129093780380930A
:100DF000770308950F931F93CF93DF9380E40E94AE
:100E0000650000E011E0C0E0D0E0F801EC0FFD1F4C
:100E100080810E94D8002196C830D105B1F7085FC3
:100E20001F4F81E00032180771F7DF91CF911F91BA
:100E30000F91089580917A00806C80937A00809160
:100E40007A0086FDFCCF209178003091790080E017
:100E500094E0821B930B2091690330916A03232B4A
:100E6000A9F49C012852310937FF02C020E030E08C
:100E70004091840350918503241735073CF020915D
:100E8000790330917A032530310511F4449A08959D
:100E9000449808950F931F93CF93DF938C010852CA
:100EA000110917FF02C000E010E063E070E080E08D
:100EB00090E00E94F50085E492E00E943D01C0E1CF
:100EC000D0E0033011054CF0209739F082E00E9409
:100ED000D800035011092197F4CF0130110529F0F2
:100EE0000230110521F481E003C080E001C080E2FE
:100EF0000E94D80021971C161D06CCF3DF91CF91DC
:100F00001F910F9108950F931F93CF93DF93CDB748
:100F1000DEB764970FB6F894DEBF0FBECDBF8C016D
:100F20000C52110917FF02C000E010E062E070E00F
:100F300080E090E00E94F5000115110529F48AE493
:100F400092E00E943D012AC023E5209FC001219F1D
:100F5000900D901B11248559994D64E670E00E9414
:100F6000DF0E9F938F937F936F938FE592E09F9314
:100F70008F938E010F5F1F4F1F930F930E94780F67
:100F800062E070E080E090E00E94F500C8010E94FD
:100F90003D010FB6F894DEBF0FBECDBF64960FB60D
:100FA000F894DEBF0FBECDBFDF91CF911F910F919F
:100FB0000895CF93DF93645B7E40814091090E9446
:100FC000AD030E940702EC01892B69F40E941A0705
:100FD00097FD05C00E941A0797FD07C002C080E078
:100FE00090E0EC0102C0C1E0D0E0CE01DF91CF91F2
:100FF00008950F931F93CF93DF9380E40E946500C1
:1010000009E211E0C0E0D0E0F801EC0FFD1F8081A3
:101010000E94D8002196C830D105B1F7085F1F4F54
:1010200081E00936180771F7DF91CF911F910F9179
:1010300008959F92AF92BF92CF92DF92EF92FF926C
:101040000F931F93CF93DF930E9428010E94F9070B
:10105000449A03E010E0C12CD12C76015601809116
:101060006F0390917003A0917103B0917203BC0162
:10107000CD016C0D7D1D8E1D9F1D0E94D907EC01B9
:101080000E940702892BE9F5CE01B8010E94DF0E0C
:10109000EB01962E60E070E0C6010E94F50088E04A
:1010A0008C1770F4CE0199278031910514F40897BC
:1010B00002C088E090E0FC01E05EFE4F808101C04C
:1010C00080E20E943B0161E070E0C5010E94F500F2
:1010D00087E0891510F0DD2702C0C8E0D0E0C05ECF
:1010E000DE4F88810E943B018FEFC81AD80AE80AB8
:1010F000F80A80E1C816D104E104F10409F0AECF8A
:10110000AACF81E090E0DF91CF911F910F91FF90E6
:10111000EF90DF90CF90BF90AF909F90089561E0E7
:1011200070E089E090E00E94F500809185038F9344
:10113000809184038F9380E792E09F938F938AE856
:1011400093E09F938F930E94780F0F900F900F90D2
:101150000F900F900F908AE893E00C943D0161E0AE
:1011600070E087E090E00E94F50080916C038F931F
:1011700080916B038F9385E792E09F938F938AE82A
:1011800093E09F938F930E94780F0F900F900F9092
:101190000F900F900F908AE893E00C943D01CF924E
:1011A000DF92EF92FF920F931F93CF93DF93C09143
:1011B0006B03D0916C038FE7E82E82E0F82E9AE85B
:1011C000C92E93E0D92E61E070E087E090E00E94A4
:1011D000F500DF93CF93FF92EF92DF92CF920E94C0
:1011E000780F8AE893E00E943D010F900F900F90D6
:1011F0000F900F900F900E942102009781F03CF019
:101200002196CD33D105FCF2CCE3D0E0DCCF2197A1
:10121000C43C8FEFD807BCF6C4ECDFEFD4CF0E94FC
:1012200007028C01892B39F3D0936C03C0936B03B5
:1012300080918803909189030E943E06C801DF9146
:10124000CF911F910F91FF90EF90DF90CF90089575
:10125000809187038F93809186038F9389E892E032
:101260009F938F938AE893E09F938F930E94780FC8
:1012700061E070E086E090E00E94F5000F900F9032
:101280000F900F900F900F908AE893E00C943D011F
:101290008F929F92AF92BF92CF92DF92EF92FF9286
:1012A0000F931F93CF93DF93C3E9D2E00AE813E0D3
:1012B00088EEE82E83E0F82E94EFC92EDD24D39437
:1012C00029E1A22EB12C809187038F938091860310
:1012D0008F93DF93CF931F930F930E94780F61E05A
:1012E00070E086E090E00E94F5008AE893E00E94BA
:1012F0003D010F900F900F900F900F900F900E9454
:101300002102009789F120918603309187031816F6
:101310001906C4F42130310529F4B0928703A09254
:101320008603D1CF2931310529F4D0928703C092A9
:101330008603C9CF243F314081F4F0928703E092C5
:101340008603C1CF283E83E0380779F3243F81E04C
:10135000380719F32931310581F781E090E0909346
:10136000870380938603AFCF0E9407024C01892B2D
:1013700031F20E94BA05C401DF91CF911F910F9104
:10138000FF90EF90DF90CF90BF90AF909F908F90A5
:1013900008958091810390918203909389038093B3
:1013A000880361E070E089E090E00E94F5008091A0
:1013B00089038F93809188038F938DE992E09F93A7
:1013C0008F938AE893E09F938F930E94780F0F90FA
:1013D0000F900F900F900F900F908AE893E00C946D
:1013E0003D01EF92FF920F931F93CF93DF93C3EAD8
:1013F000D2E00AE813E061E070E089E090E00E944A
:10140000F500809189038F93809188038F93DF93F8
:10141000CF931F930F930E94780F8AE893E00E9466
:101420003D010F900F900F900F900F900F900E9422
:1014300021020097E9F02091880330918903181662
:1014400019067CF4C90101968A3091052CF4909319
:10145000890380938803CFCF109289031092880369
:10146000CACFC901019797FFF2CF89E090E0EFCF93
:101470000E9407027C01892BD1F280918803909110
:10148000890390938203809381030E943E06C701E3
:10149000DF91CF911F910F91FF90EF90089561E040
:1014A00070E087E090E00E94F500809178038F93D0
:1014B000809177038F938AE892E09F938F938AE8D5
:1014C00093E09F938F930E94780F0F900F900F904F
:1014D0000F900F900F908AE893E00C943D01CF920B
:1014E000DF92EF92FF920F931F93CF93DF93C09100
:1014F0007703D091780389EAE82E82E0F82E9AE803
:10150000C92E93E0D92E61E070E087E090E00E9460
:10151000F500DF93CF93FF92EF92DF92CF920E947C
:10152000780F8AE893E00E943D010F900F900F9092
:101530000F900F900F900E942102009781F03CF0D5
:101540002196C93CD105FCF2C8ECD0E0DCCF219754
:10155000C8338FEFD807BCF6C8E3DFEFD4CF0E94C3
:1015600007028C01892B39F38091770390917803DE
:10157000C817D90731F0D0937803C09377030E943E
:10158000BA05C801DF91CF911F910F91FF90EF90A5
:10159000DF90CF900895CF92DF92EF92FF920F935A
:1015A0001F93CF93DF93C2EBD2E00AE813E080E40D
:1015B000E82EF12C61E070E089E090E00E94F500F7
:1015C000809185038F93809184038F93DF93CF93D2
:1015D0001F930F930E94780F8AE893E00E943D01C9
:1015E0000F900F900F900F900F900F900E9421027C
:1015F0000097F9F02091840330918503181619069D
:101600007CF4C9010196813491052CF490938503F3
:1016100080938403CFCFF0928503E0928403CACFF6
:10162000C901019797FFF2CF1092850310928403AE
:10163000C1CF0E941A070E9407026C01892BB1F2E8
:101640000E94BA05C601DF91CF911F910F91FF90C3
:10165000EF90DF90CF90089561E070E086E090E039
:101660000E94F50080916D0390916E03873522E012
:1016700092071CF468EB72E006C0873522E09207FF
:1016800039F462EC72E08AE893E00E94710F1AC0AC
:101690006AE070E00E94DF0E9F938F937F936F93B9
:1016A0008CEC92E09F938F938AE893E09F938F93C3
:1016B0000E94780F8DB79EB708960FB6F8949EBF1C
:1016C0000FBE8DBF8AE893E00C943D018F929F92EC
:1016D000AF92BF92CF92DF92EF92FF920F931F9340
:1016E000CF93DF938AE0E82EF12CCEEED2E00AE829
:1016F00013E096E5C92E92E0D92E2CEDA22E25E01E
:10170000B22E61E070E086E090E00E94F5008091EA
:101710006D0390916E03873522E092071CF469ED0A
:1017200072E006C0873522E0920739F463EE72E07A
:101730008AE893E00E94710F15C0B7010E94DF0E86
:101740009F938F937F936F93DF93CF931F930F9309
:101750000E94780F8DB79EB708960FB6F8949EBF7B
:101760000FBE8DBF8AE893E00E943D010E942102D6
:10177000009711F120916D0330916E031816190630
:1017800084F4C90101968D3D25E092072CF49093D5
:101790006E0380936D03B5CFB0926E03A0926D037C
:1017A000B0CFC9010197863522E0920784F7D09225
:1017B0006E03C0926D03A5CF0E9407024C01892BD6
:1017C000A9F280918803909189030E943E06C4018A
:1017D000DF91CF911F910F91FF90EF90DF90CF900D
:1017E000BF90AF909F908F9008950E942801109213
:1017F00089031092880380918803909189030A9746
:10180000B4F760E070E080E090E00E94F5008BEFBC
:1018100092E00E943D0160E070E081E090E00E9473
:10182000F50080918803805D0E943B0180918803D0
:10183000909189030E94130680916F039091700329
:10184000A0917103B0917203BC01CD01645B7E4035
:10185000814091090E94AD038FE493EC0197F1F769
:1018600000C000008091690390916A03892B09F000
:1018700040C00E940702892BE1F50E941A072091BF
:101880008403309185032817390754F08091880329
:101890009091890301969093890380938803ABCF3D
:1018A00060916F0370917003809171039091720346
:1018B0000E9481020E94F1032091840330918503EC
:1018C0002817390724F41092800310927F03809127
:1018D000690390916A03892B61F40E940702892BA6
:1018E00041F480917F0390918003893C910514F32A
:1018F000CDCF089529B1207630E085E03595279544
:101900008A95E1F781E090E02230310549F02130FD
:10191000310511F080E090E091958195910908954D
:1019200008958F929F92AF92BF92CF92DF92EF92E3
:10193000FF920F931F930E94FA068AE090E0909323
:101940008903809388030E941306C0906F03D09090
:101950007003E0907103F090720310927B03109279
:101960007C0310927D0310927E030E94280160E0A8
:1019700070E080E090E00E94F50088E093E00E9433
:101980003D0160E070E08DE090E00E94F5008BE7A3
:1019900092E00E943D014A9BFECF0E94F1030E940B
:1019A00021020097C1F120918603309187034901FC
:1019B000032E000CAA08BB08829FB001839F700D04
:1019C000929F700D1124AB01770F660B770B8091FE
:1019D0006F0390917003A0917103B09172038A011B
:1019E0009B01080F191F2A1F3B1FC901B801A50140
:1019F00094010E94150FC501B4010E94CF0E60939F
:101A00006F0370937003809371039093720310922D
:101A1000800310927F030E947A0C0097E1F0092E58
:101A2000000CAA0BBB0B40916F03509170036091A7
:101A3000710370917203840F951FA61FB71F8093C7
:101A40006F0390937003A0937103B093720310928D
:101A5000800310927F0380917F0390918003893CE3
:101A60009105DCF080916F0390917003A091710358
:101A7000B0917203C816D906EA06FB0671F0809190
:101A80008803909189030E943E06C0906F03D09016
:101A90007003E0907103F09072030E9407025C01F2
:101AA000892B09F478CF80918803909189030E9453
:101AB0003E060E94BA0512E0A116B10419F083E0B7
:101AC00090E002C082E090E01F910F91FF90EF90B4
:101AD000DF90CF90BF90AF909F908F9008950F931D
:101AE0001F93CF93DF930E94FA0680918103909118
:101AF000820390938903809388030E9413061092B7
:101B00007B0310927C0310927D0310927E030E944F
:101B1000280160E070E080E090E00E94F5008DE434
:101B20000E943B0180918803805D0E943B0160E040
:101B300070E08DE090E00E94F5008BE792E00E945B
:101B40003D0109E010E04A9BFECF0E94F1030E9494
:101B500021020097A9F1209188033091890318167A
:101B6000190654F4C90101968A3091054CF010927F
:101B70008903109288030DC0C901019797FD05C024
:101B8000909389038093880304C010938903009382
:101B9000880360E070E081E090E00E94F5008091B1
:101BA0008803805D0E943B018091880390918903A6
:101BB0000E9413061092800310927F030E94A802D5
:101BC00080917F0390918003893C91058CF08091F6
:101BD00088039091890320918103309182038217B9
:101BE000930731F090938203809381030E94BA059A
:101BF0000E940702EC01892B09F4A5CF809188038C
:101C00009091890390938203809381030E943E0602
:101C10000E94BA05229719F081E090E002C084E0AA
:101C200090E0DF91CF911F910F910895FF920F9354
:101C30001F93CF93DF93C0E0D0E086E0F82E61E001
:101C400070E080E090E00E94F5008CE093E00E945C
:101C50003D0161E070E080E090E00E94F500FC9EB4
:101C60008001FD9E100D11240F571E4FD8018D913C
:101C70009C910E943D01D8011296ED91FC91139721
:101C8000309709F009954A9BFECF0E941A070E94DF
:101C90002102009769F03CF02196C630D10579F613
:101CA000C0E0D0E0CCCF219750F6C5E0D0E0C7CF60
:101CB0000E940702009749F38130910531F4D80161
:101CC0001496ED91FC9115970995029709F0B7CFFD
:101CD000249719F081E090E002C083E090E0DF916A
:101CE000CF911F910F91FF900895FF920F931F9333
:101CF000CF93DF93C0E0D0E086E0F82E61E070E0A3
:101D000080E090E00E94F5008CE093E00E943D01AD
:101D100061E070E080E090E00E94F500FC9E8001B0
:101D2000FD9E100D112407591E4FD8018D919C91D5
:101D30000E943D01D8011296ED91FC9113973097C6
:101D400009F009954A9BFECF0E941A070E942102C2
:101D5000009769F03CF02196C430D10579F6C0E0D7
:101D6000D0E0CCCF219750F6C3E0D0E0C7CF0E949F
:101D70000702009749F38130910531F4D801149698
:101D8000ED91FC9115970995029709F0B7CF83E083
:101D900090E0DF91CF911F910F91FF900895DB01AB
:101DA0008F939F930E943B0FBF91AF91A29F800D95
:101DB000911DA39F900DB29F900D1124089597FB44
:101DC000072E16F4009407D077FD09D00E944E0F1D
:101DD00007FC05D03EF4909581959F4F089570952E
:101DE00061957F4F0895A1E21A2EAA1BBB1BFD012E
:101DF0000DC0AA1FBB1FEE1FFF1FA217B307E407EA
:101E0000F50720F0A21BB30BE40BF50B661F771F41
:101E1000881F991F1A9469F7609570958095909521
:101E20009B01AC01BD01CF010895052E97FB1EF467
:101E300000940E942C0F57FD07D00E94F30E07FC60
:101E400003D04EF40C942C0F50954095309521956D
:101E50003F4F4F4F5F4F08959095809570956195D6
:101E60007F4F8F4F9F4F08950E94620FB7FF0895D5
:101E7000821B930B08950E94620FA59F900DB49F43
:101E8000900DA49F800D911D11240895B7FF0C940F
:101E90003B0F0E943B0F821B930B0895AA1BBB1B99
:101EA00051E107C0AA1FBB1FA617B70710F0A61B5A
:101EB000B70B881F991F5A95A9F780959095BC017B
:101EC000CD010895A29FB001B39FC001A39F700DE3
:101ED000811D1124911DB29F700D811D1124911D32
:101EE0000895FB01DC0101900D920020E1F70895B7
:101EF000AEE0B0E0EEE7FFE00C9470120D891E89B1
:101F000086E08C831A8309838FEF9FE79E838D83FE
:101F1000AE01475E5F4F6F89788DCE0101960E94BA
:101F20009A0FEF81F885E00FF11F10822E96E4E002
:101F30000C948C12ABE0B0E0E0EAFFE00C9462128B
:101F40006C017B018A01FC0117821682838181FF6B
:101F5000CCC1CE0101963C01F6019381F70193FDBE
:101F6000859193FF81917F01882309F4BAC185325D
:101F700039F493FD859193FF81917F01853229F496
:101F8000B60190E00E949111E7CF912C212C312CC9
:101F9000FFE1F315D8F08B3279F038F4803279F024
:101FA0008332A1F4232D20611DC08D3261F0803376
:101FB00069F4232D216016C0832D8260382EE32D15
:101FC000E4603E2E2AC0F32DF8601DC037FC2DC002
:101FD00020ED280F2A3040F08E32B9F436FC81C152
:101FE000232D2064322E19C036FE06C08AE0989E4A
:101FF000200D1124922E11C0EAE02E9E200D1124F6
:10200000222EF32DF0623F2E08C08C3621F4832D52
:102010008068382E02C0883641F4F70193FD85911F
:1020200093FF81917F018111B3CF982F9F7D9554AC
:10203000933028F40C5F1F4F9FE399830DC08336C4
:1020400031F0833771F0833509F059C021C0F801B0
:10205000808189830E5F1F4F88248394912C5301C4
:1020600013C02801F2E04F0E511CF801A080B1808E
:1020700036FE03C0692D70E002C06FEF7FEFC5012F
:102080000E9486114C018201F32DFF773F2E16C06E
:10209000280122E0420E511CF801A080B18036FEDA
:1020A00003C0692D70E002C06FEF7FEFC5010E9491
:1020B0007B114C01F32DF0683F2E820133FC1BC0D5
:1020C000822D90E088169906B0F4B60180E290E087
:1020D0000E9491112A94F4CFF50137FC859137FEC7
:1020E00081915F01B60190E00E94911121102A9424
:1020F00021E0821A91088114910471F7E8C08436B6
:1021000011F0893641F5F80137FE07C06081718111
:10211000828193810C5F1F4F08C060817181072EFF
:10212000000C880B990B0E5F1F4FF32DFF763F2E8F
:1021300097FF09C090958095709561957F4F8F4F5F
:102140009F4FF0683F2E2AE030E0A3010E94CD119E
:10215000882E861845C0853731F4232D2F7EB22E68
:102160002AE030E025C0932D997FB92E8F36C1F03B
:1021700018F4883579F0B5C0803719F0883721F028
:10218000B0C0E92FE061BE2EB4FE0DC0FB2DF4609F
:10219000BF2E09C034FE0AC0292F2660B22E06C009
:1021A00028E030E005C020E130E002C020E132E06C
:1021B000F801B7FE07C060817181828193810C5F55
:1021C0001F4F06C06081718180E090E00E5F1F4F5D
:1021D000A3010E94CD11882E8618FB2DFF773F2E7C
:1021E00036FE0DC0232D2E7FA22E891458F434FE06
:1021F0000BC032FC09C0832D8E7EA82E05C0B82CE2
:10220000A32C03C0B82C01C0B92CA4FE0FC0FE0142
:10221000E80DF11D8081803321F49A2D997EA92E3D
:1022200009C0A2FE06C0B394B39404C08A2D867878
:1022300009F0B394A3FC11C0A0FE06C0B21488F448
:10224000280C922C9B180EC0B21460F4B60180E2E8
:1022500090E00E949111B394F7CFB21418F42B18A8
:1022600002C0982C212CA4FE10C0B60180E390E09F
:102270000E949111A2FE17C0A1FC03C088E790E064
:1022800002C088E590E0B6010CC08A2D867859F02E
:10229000A1FE02C08BE201C080E2A7FC8DE2B60184
:1022A00090E00E949111891438F4B60180E390E027
:1022B0000E9491119A94F7CF8A94F301E80DF11DD1
:1022C0008081B60190E00E9491118110F5CF22200B
:1022D00009F442CEB60180E290E00E9491112A9466
:1022E000F6CFF6018681978102C08FEF9FEF2B9684
:1022F000E2E10C947E12FC010590615070400110E7
:10230000D8F7809590958E0F9F1F0895FC0161501E
:10231000704001900110D8F7809590958E0F9F1F07
:1023200008950F931F93CF93DF93FB01238121FD2A
:1023300003C08FEF9FEF2CC022FF16C0468157814C
:10234000248135814217530744F4A081B1819D0156
:102350002F5F3F4F318320838C93268137812F5FFE
:102360003F4F3783268314C08B01EC01FB010084AF
:10237000F185E02D0995892BE1F6D80116968D910E
:102380009C911797019617969C938E931697CE0162
:10239000DF91CF911F910F910895FA01AA2728305C
:1023A00051F1203181F1E8946F936E7F6E5F7F4F22
:1023B0008F4F9F4FAF4FB1E03ED0B4E03CD0670F9E
:1023C000781F891F9A1FA11D680F791F8A1F911DF1
:1023D000A11D6A0F711D811D911DA11D20D009F441
:1023E00068943F912AE0269F11243019305D319383
:1023F000DEF6CF010895462F4770405D4193B3E06C
:102400000FD0C9F7F6CF462F4F70405D4A3318F012
:10241000495D31FD4052419302D0A9F7EACFB4E0C3
:10242000A6959795879577956795BA95C9F700977B
:102430006105710508959B01AC010A2E069457951C
:10244000479537952795BA95C9F7620F731F841F73
:10245000951FA01D0895A6E1B0E044E050E00C9463
:102460004612A8E1B0E042E050E00C944612242F5E
:102470000E945512252F0E9455120C943F120E9463
:102480005412272F0C945512DC01CB01FC01F99951
:10249000FECF06C0F2BDE1BDF89A319600B40D92B0
:1024A00041505040B8F70895262FF999FECF1FBA32
:1024B00092BD81BD20BD0FB6F894FA9AF99A0FBE6D
:1024C000019608952F923F924F925F926F927F9262
:1024D0008F929F92AF92BF92CF92DF92EF92FF9234
:1024E0000F931F93CF93DF93CDB7DEB7CA1BDB0BE0
:1024F0000FB6F894DEBF0FBECDBF09942A88398885
:1025000048885F846E847D848C849B84AA84B9848B
:10251000C884DF80EE80FD800C811B81AA81B98197
:10252000CE0FD11D0FB6F894DEBF0FBECDBFED01AB
:062530000895F894FFCFAE
:102536000000101010100000000014141414000005
:10254600000015151515000000000404040E040013
:102556002000010203040506070000000000000039
:102566001F0000000000001F1F00000000001F1FCA
:102576001F000000001F1F1F1F0000001F1F1F1F3E
:102586001F00001F1F1F1F1F1F001F001F1F1F1FD1
:102596001F1F1F1F1F1F1F1F1F21038F08CB0A2A64
:1025A60003AF08CF0833032C0B660B3C030000F582
:1025B6000B21038F08CB0A4B03280948092A03AFCE
:1025C60008CF0833032C0B660B5403C909F1095DC8
:1025D600034F0A6F0A000040001400540053712094
:1025E6002532642053682025336420537420253413
:1025F60064005371202532642053682025336420FB
:10260600546F20206F666600537120253264205374
:10261600682025336420546F2031373530005371DC
:10262600202532642053682025336420546F2533D7
:10263600642E25316400547800527800342E34001C
:102646005045314A5044203233636D2D5472782000
:1026560076257300202020616E6420696D70726F8C
:1026660076656420627900202020202020202044E6
:102676004738574D00532D4D3A00525353493A208F
:102686002020202020202020202020202020005232
:102696005353493A202D25642E25642064426D004B
:1026A60020253264002020253364204D487A003EE0
:1026B60020253364204D487A002020253464204BA1
:1026C600487A003E20253464204B487A0020204D6D
:1026D6002564003E204D2564003E253464204B4889
:1026E6007A003E25326420002020206F6666202076
:1026F600200020203137353020487A00202025332D
:10270600642E25316420487A003E20206F666620BC
:102716002020003E203137353020487A20003E20E8
:102726002533642E25316420487A004D202020531D
:1027360063616E6E696E670056464F00202020204A
:102746002020202020202020202020202020202083
:1027560000537175656C6368200053686966742060
:102766002020004354435353202020004D656D6FB5
:102776007279207363616E20202000537465702087
:102786002020200053746F7265202020004672714D
:0627960041646A202000EE
:00000001FF
